:040000006F00701FFE
:100004000000000000000000680200007002000010
:1000140000000000F40900000000000000000000DF
:10002400F4090000F40900000000000000000000D2
:10003400F409000000000000F409000000000000C2
:10004400F4090000F4090000F4090000F4090000B8
:10005400F4090000F4090000F4090000F4090000A8
:10006400F4090000F4090000F4090000F409000098
:10007400F4090000F4090000F4090000F409000088
:10008400F4090000F4090000F4090000F409000078
:10009400F4090000F4090000F4090000F409000068
:1000A400F4090000F4090000F4090000F409000058
:1000B400F4090000F4090000F4090000F409000048
:1000C400F4090000F4090000F4090000F409000038
:1000D400F409000020030000F4090000F409000002
:1000E400F4090000F409000000000000F409000015
:1000F400F4090000F4090000F4090000F409000008
:1001040000000000F4090000F4090000F4090000F4
:1001140050040000F4090000F4090000F409000090
:10012400F4090000F4090000F4090000F4090000D7
:10013400F4090000000000000000000000000000BE
:10014400000000000000000000000000F4090000AE
:10015400000000000000000000000000F40900009E
:10016400F4090000F4090000F4090000F409000097
:10017400F4090000F4090000F4090000F409000087
:10018400F4090000F4090000F4090000F409000077
:10019400F4090000F4090000F4090000F409000067
:1001A400000000000000000000000000000000004B
:0C01B4000000000000000000000000003F
:1001C0003D432A876373C3029377F700BDEFADE524
:1001D000937606FF3D8ABA960CC34CC30CC74CC736
:1001E0004107E36BD7FE11E28280B306C3408A0663
:1001F0009702000096966780A6002307B700A30623
:10020000B7002306B700A305B7002305B700A30472
:10021000B7002304B700A303B7002303B700A3026A
:10022000B7002302B700A301B7002301B700A30062
:10023000B7002300B700828093F5F50F93968500F1
:10024000D58D93960501D58D61B7939627009702BA
:10025000000096968682E78086FA9680C1171D8FE9
:100260003E96E374C3F8A5B7411122C6000801A069
:10027000411122C60008B7E700E03707EFBE1307B9
:100280000708B8C701A0411106C622C400086926A4
:10029000EF40E054EF30C05EF16713850720EF4078
:1002A0002014F16713850720EF408023B707002053
:1002B00083A7071ABE8599671385C711EF402041B0
:1002C000EF001051AA87BE8599671385C712EF40CA
:1002D0000040EF00F04FAA87BE8599671385C712CB
:1002E000EF406047EF30507DEF20D03DEF30D00E33
:1002F000EF40A00BB70700209387070083C7871143
:1003000093F7F70FE5DBB707002093870700238CEF
:100310000710B707002013850700EF207040D9BFF2
:10032000011122CE001093055052B74701401385AA
:100330000780EF203008AA8763870710B74701407E
:1003400013850780EF209000AA87A307F4FE0347D8
:10035000F4FE9307A00A631CF70005472388E18099
:10036000B7070020938707002394071071A0034765
:10037000F4FE9307F00F6311F70823880180B70795
:100380000020938707000547238CE710B70700205C
:100390009387070083D78710C207C183138717008D
:1003A00093160701C18237070020130707002314A3
:1003B000D7103E87B707002093870700BA977D576D
:1003C00098A7B70700209387070083D78710C20735
:1003D000C1831387170093160701C18237070020D6
:1003E000130707002314D7103E87B7070020938711
:1003F0000700BA972384070083C701818DCFB70711
:1004000000209387070083D78710C207C183138713
:10041000170093160701C182370700201307070052
:100420002314D7103E87B707002093870700BA9799
:100430000347F4FE98A793055052B7470140138530
:100440000780EF20D0060100724405617300203060
:10045000011122CE001093055052B757004013856A
:1004600007C0EF202075AA8763870710B7570040A1
:10047000138507C0EF20806DAA87A307F4FE03470A
:10048000F4FE9307A00A631CF7000547A388E180E8
:10049000B7070020938707002394071071A0034734
:1004A000F4FE9307F00F6311F708A3880180B707E4
:1004B0000020938707000547238CE710B70700202B
:1004C0009387070083D78710C207C183138717005C
:1004D00093160701C1823707002013070700231472
:1004E000D7103E87B707002093870700BA977D573C
:1004F00098A7B70700209387070083D78710C20704
:10050000C1831387170093160701C18237070020A4
:10051000130707002314D7103E87B70700209387DF
:100520000700BA972384070083C711818DCFB707CF
:1005300000209387070083D78710C207C1831387E2
:10054000170093160701C182370700201307070021
:100550002314D7103E87B707002093870700BA9768
:100560000347F4FE98A793055052B75700401385F0
:1005700007C0EF20C0730100724405617300203092
:10058000411106C622C40008B71702409843B717A6
:1005900002401367170098C3B7170240D443B71738
:1005A00002403707FFF0758FD8C3B7170240944356
:1005B000B71702403707F7FE7D17758F98C3B71737
:1005C00002409443B71702403707FCFF7D17758F31
:1005D00098C3B7170240D443B7170240370701FF4B
:1005E0007D17758FD8C3B71702409443B7170240E1
:1005F000370700EC7D17758F98C3B7170240370790
:10060000FF0098C7B717024023A60702C1240100C4
:10061000B240224441018280797122D600182322FF
:1006200004FE232604FE232004FEA30504FEA30FDC
:1006300004FCB7170240DC43B18B2322F4FE0327EE
:1006400044FE91476304F702032744FEA147630871
:10065000F702832744FE63910722B707002037176C
:100660007A001307072023A0E71A0DA4B70700207C
:1006700037177A001307072023A0E71A01ACB71732
:100680000240D843B7073C00F98F2326F4FEB71782
:100690000240D843C167F98F2320F4FE8327C4FEAC
:1006A000C98389072326F4FE0327C4FE89476315FF
:1006B000F700C9472326F4FE0327C4FEBD4763188D
:1006C000F700B5472326F4FE8547A305F4FE03276C
:1006D000C4FEC1476315F700BD472326F4FE032778
:1006E000C4FEC5476315F700C1472326F4FE8327E0
:1006F00004FEB1E3B7470240938707809C43C18B58
:1007000091CF0327C4FEB7177A00938707203307DA
:10071000F702B707002023A0E71A3DAA0327C4FE6B
:10072000B7173D00938707903307F702B7070020FC
:1007300023A0E71A15A2B7170240D857C167F98F4F
:10074000EDC3B7170240DC579183BD8B8507371780
:100750007A00130707203357F702B707002023A0BA
:10076000E71AB7170240DC57A18393F7F70FBD8B49
:10077000A30FF4FC8347F4FD99EFB707002003A70C
:10078000071ABA878A07BA9713D71700B707002046
:1007900023A0E71ABDA00347F4FD85476312F702C3
:1007A000B707002003A7071ABA878607BA978E07EC
:1007B000BA9713D71700B707002023A0E71A91A014
:1007C0000347F4FDBD476310F702B707002003A7F6
:1007D000071ABA878A07BA978A073E87B7070020A1
:1007E00023A0E71A39A88347F4FD89073E87B70796
:1007F000002083A7071A3307F702B707002023A0BA
:10080000E71AB707002003A7071AB7170240DC57FB
:10081000BD8B85073357F702B707002023A0E71ADF
:1008200005A0B7170240DC57BD8B850737177A0044
:10083000130707203357F702B707002023A0E71A52
:10084000B707002003A7071A8327C4FE3307F70260
:10085000B707002023A0E71A0347B4FE85476316B5
:10086000F702B707002083A7071A13D71700B707A7
:10087000002023A0E71A11A8B707002037177A0035
:100880001307072023A0E71A11A00100B7170240A1
:10089000DC43918313F7F700B70700209387C71154
:1008A000BA979C2393F7F70F2322F4FEB707002093
:1008B00003A7071A832744FE3357F700B707002022
:1008C00023A0E71A0100325445618280411106C617
:1008D00022C4000831200100B2402244410182803C
:1008E000011122CE0010232604FE232404FEB71794
:1008F00002409443B71702404167558F98C3B7171A
:1009000002409843B7070200F98F2324F4FE83279F
:10091000C4FE85072326F4FE832784FE91E7032780
:10092000C4FE8567E31DF7FCB71702409843B7077D
:100930000200F98F89C785472324F4FE19A02324D8
:1009400004FE032784FE85476312F70A3717024027
:10095000B71702405843D8C337170240B7170240B1
:100960005843D8C3B7170240D843B717024013679C
:100970000740D8C3B7170240D443B7170240370720
:10098000C1FF7D17758FD8C3B7170240D443B7177F
:10099000024037072900558FD8C3B7170240944348
:1009A000B717024037070001558F98C30100B717EA
:1009B00002409843B7070002F98FF5DBB7170240F2
:1009C000D843B7170240719BD8C3B7170240D8432A
:1009D000B717024013672700D8C30100B7170240BA
:1009E000DC4313F7C700A147E31AF7FE0100724486
:1009F0000561828001A0970100209381A1FA1771FF
:100A0000002013012160176500001305659A97F512
:100A1000FF1F9385255F1386018163FAC50083223A
:100A2000050023A0550011059105E3EAC5FE1385D5
:100A30000181938501836377B500232005001105AB
:100A4000E36DB5FEFD42739002BCAD4273904280EF
:100A5000B7620000938282087390023097F2FFFF22
:100A60009382825A93E2320073905230EFF05FB17A
:100A700097020000938262817390123473002030D9
:100A8000011106CE22CC00102326A4FE0327C4FEAB
:100A9000B727014093870740631DF700854513057D
:100AA0000020EF10802E814513050020EF10E02D6F
:100AB0001DA00327C4FEB737014093870780631C3E
:100AC000F700854513050040EF10202C81451305E4
:100AD0000040EF10802B0100F240624405618280EB
:100AE000797122D60018232EA4FC232CB4FC2326D3
:100AF00004FEA30504FE8327C4FDDC432326F4FE85
:100B00000327C4FEB707F1E09387F7EFF98F232699
:100B1000F4FE832784FD9843832784FD9C4F5D8FDB
:100B2000832784FDDC4F5D8F832784FDDC43A20790
:100B3000D98F0327C4FED98F2326F4FE8327C4FD53
:100B40000327C4FED8C38327C4FD9C472326F4FE95
:100B50000327C4FEB7F7F1FF9387D77FF98F2326CA
:100B6000F4FE832784FD984B832784FDDC475D8F4B
:100B7000832784FD9C478607D98F0327C4FED98F1E
:100B80002326F4FE8327C4FD0327C4FE98C78327CA
:100B9000C4FDDC572326F4FE0327C4FEB70710FF6D
:100BA000FD17F98F2326F4FE832784FDDC2BFD1728
:100BB00013F7F70F8347B4FED98FA305F4FE8347DD
:100BC000B4FED2070327C4FED98F2326F4FE832761
:100BD000C4FD0327C4FED8D701003254456182808A
:100BE000011122CE00102326A4FE2324B4FE832765
:100BF00084FE91CB8327C4FE9C4713E7170083270D
:100C0000C4FE98C709A88327C4FE9C4713F7E7FFD3
:100C10008327C4FE98C701007244056182800111D8
:100C200022CE00102326A4FE2324B4FE832784FEB4
:100C300091CB8327C4FE9C4713E707108327C4FE8C
:100C400098C709A88327C4FE9C4713F7F7EF8327AB
:100C5000C4FE98C70100724405618280011122CE52
:100C600000102326A4FE8327C4FE9C4713E78700B9
:100C70008327C4FE98C701007244056182807971A0
:100C800022D60018232EA4FC232604FE8327C4FDAD
:100C90009C47A18B89C785472326F4FE19A02326EC
:100CA00004FE8327C4FE3E853254456182800111D3
:100CB00022CE00102326A4FE8327C4FE9C4713E700
:100CC00047008327C4FE98C70100724405618280F3
:100CD000797122D60018232EA4FC232604FE832734
:100CE000C4FD9C47918B89C785472326F4FE19A034
:100CF000232604FE8327C4FE3E853254456182804C
:100D0000011122CE00102326A4FE2324B4FE832743
:100D100084FE99CB8327C4FE9847B70750005D8FA8
:100D20008327C4FE98C719A88327C4FE9847B7072E
:100D3000B0FFFD177D8F8327C4FE98C70100724462
:100D400005618280797122D60018232EA4FCAE871B
:100D50003687A30DF4FCB287230DF4FCBA87A30CED
:100D6000F4FC232604FE232404FE0347B4FDA54718
:100D700063F6E7068327C4FDDC472326F4FE83479A
:100D8000B4FD138767FFBA878607BA971D47B31765
:100D9000F7002324F4FE832784FE93C7F7FF03277D
:100DA000C4FEF98F2326F4FE834694FD8347B4FDE9
:100DB000138767FFBA878607BA97B397F60023248D
:100DC000F4FE0327C4FE832784FED98F2326F4FE76
:100DD0008327C4FD0327C4FED8C785A08327C4FD8D
:100DE0009C4B2326F4FE0347B4FDBA878607BA97C7
:100DF0001D47B317F7002324F4FE832784FE93C70F
:100E0000F7FF0327C4FEF98F2326F4FE834694FDE3
:100E10000347B4FDBA878607BA97B397F600232431
:100E2000F4FE0327C4FE832784FED98F2326F4FE15
:100E30008327C4FD0327C4FE98CB0347A4FD99472D
:100E400063E6E7068327C4FDDC5B2326F4FE8347C5
:100E5000A4FD1387F7FFBA878A07BA977D47B317B0
:100E6000F7002324F4FE832784FE93C7F7FF0327AC
:100E7000C4FEF98F2326F4FE8346B4FD8347A4FD08
:100E80001387F7FFBA878A07BA97B397F600232428
:100E9000F4FE0327C4FE832784FED98F2326F4FEA5
:100EA0008327C4FD0327C4FED8DBE9A80347A4FDBC
:100EB000B14763E6E7068327C4FD9C5B2326F4FE67
:100EC0008347A4FD138797FFBA878A07BA977D47A0
:100ED000B317F7002324F4FE832784FE93C7F7FF9C
:100EE0000327C4FEF98F2326F4FE8346B4FD83470F
:100EF000A4FD138797FFBA878A07BA97B397F600BE
:100F00002324F4FE0327C4FE832784FED98F2326DF
:100F1000F4FE8327C4FD0327C4FE98DBA5A0832726
:100F2000C4FDDC572326F4FE8347A4FD138737FF57
:100F3000BA878A07BA977D47B317F7002324F4FED0
:100F4000832784FE93C7F7FF0327C4FEF98F232668
:100F5000F4FE8346B4FD8347A4FD138737FFBA87A9
:100F60008A07BA97B397F6002324F4FE0327C4FE3A
:100F7000832784FED98F2326F4FE8327C4FD03270D
:100F8000C4FED8D70100325445618280011122CEBF
:100F900000102326A4FE2324B4FE832784FE99CBCD
:100FA0008327C4FED843B70700045D8F8327C4FEA0
:100FB000D8C319A88327C4FED843B70700FCFD1780
:100FC0007D8F8327C4FED8C30100724405618280EF
:100FD000411122C60008B7F7FF1F938747709C4353
:100FE0003E85324441018280011122CE0010232629
:100FF000A4FE8327C4FE9843C167F9177D8F83271A
:10100000C4FE98C38327C4FE23A007008327C4FE21
:1010100023A207008327C4FE23A407008327C4FE5E
:1010200023A607000327C4FEB7070240A107631BDE
:10103000F700B7070240D843B70702401367F7002D
:10104000D8C345AC0327C4FEB7070240F107631BB2
:10105000F700B7070240D843B70702401367070FEE
:10106000D8C341AC0327C4FEB707024093870703E8
:10107000631DF700B7070240D443B7070240056776
:10108000130707F0558FD8C3ADA40327C4FEB707D5
:10109000024093874704631BF700B7070240D4431D
:1010A000B70702403D67558FD8C3A1A40327C4FEEC
:1010B000B707024093878705631CF700B707024014
:1010C000D443B707024037070F00558FD8C315A484
:1010D0000327C4FEB70702409387C706631CF700C7
:1010E000B7070240D443B70702403707F000558FD7
:1010F000D8C301A40327C4FEB7070240938707089B
:10110000631CF700B7070240D443B7070240370714
:10111000000F558FD8C3F1AA0327C4FEB7070240BA
:1011200093878740631FF700B70702409387074004
:10113000D843B7070240938707401367F700D8C327
:101140004DAA0327C4FEB70702409387C741631F18
:10115000F700B707024093870740D843B70702401C
:10116000938707401367070FD8C361A20327C4FE04
:10117000B7070240938707436311F702B70702409E
:1011800093870740D443B70702409387074005671A
:10119000130707F0558FD8C3A9AA0327C4FEB707C2
:1011A000024093874744631FF700B70702409387C5
:1011B0000740D443B7070240938707403D67558FE8
:1011C000D8C305AA0327C4FEB70702409387874503
:1011D0006310F702B707024093870740D443B7076D
:1011E00002409387074037070F00558FD8C311A2DD
:1011F0000327C4FEB70702409387C7466310F70270
:10120000B707024093870740D443B707024093874C
:1012100007403707F000558FD8C3E1A80327C4FE65
:10122000B7070240938707486310F702B7070240E9
:1012300093870740D443B707024093870740370797
:10124000000F558FD8C375A00327C4FEB70702400F
:1012500093870749631FF700B70702409387074D3D
:10126000D843B70702409387074D1367F700D8C3E9
:1012700049A00327C4FEB70702409387074A631FAC
:10128000F700B70702409387074DD843B7070240DE
:101290009387074D1367070FD8C3A1A80327C4FE80
:1012A000B70702409387074B6311F702B707024065
:1012B0009387074DD443B70702409387074D0567CF
:1012C000130707F0558FD8C32DA00327C4FEB70717
:1012D00002409387074C631EF700B70702409387CD
:1012E000074DD443B70702409387074D3D67558F9D
:1012F000D8C30100724405618280797122D600183A
:10130000232EA4FC232CB4FC232604FE8327C4FD37
:101310009C432326F4FE0327C4FEE177BD07F98F23
:101320002326F4FE832784FD9847832784FD9C535E
:101330005D8F832784FD9C4B5D8F832784FDDC4B71
:101340005D8F832784FD9C4F5D8F832784FDDC4F59
:101350005D8F832784FDDC535D8F832784FD9C573D
:10136000D98F0327C4FED98F2326F4FE8327C4FD1B
:101370000327C4FE98C3832784FDD8478327C4FD71
:10138000D8C3832784FD98438327C4FD98C7832748
:1013900084FDD8438327C4FDD8C70100325445617A
:1013A0008280011122CE00102326A4FE2324B4FE45
:1013B000832784FE91CB8327C4FE9C4313E7170049
:1013C0008327C4FE98C311A88327C4FE9843C1672E
:1013D000F9177D8F8327C4FE98C30100724405610D
:1013E0008280397122DE80002326A4FC2324B4FCF1
:1013F000232604FE232004FE232404FE232E04FCC3
:10140000232204FE232C04FC832784FC9C47BD8BF1
:101410002326F4FE832784FC9C47C18B89CB83273A
:1014200084FCDC430327C4FED98F2326F4FE8327E4
:1014300084FC9E2393F7F70FE9CF8327C4FC9C43DA
:101440002322F4FE232404FE5DA8832784FE05479F
:10145000B317F700232EF4FC832784FC9E233E87DA
:101460008327C4FDF98F2320F4FE032704FE83277E
:10147000C4FD6311F708832784FE8A07232EF4FC3A
:101480008327C4FD3D47B317F700232CF4FC8327C3
:1014900084FD93C7F7FF032744FEF98F2322F4FE50
:1014A0008327C4FD0327C4FEB317F700032744FEB8
:1014B000D98F2322F4FE832784FC98479307800268
:1014C000631BF700832784FE05473317F700832744
:1014D000C4FCD8CB05A0832784FC984793078004DD
:1014E000631AF700832784FE05473317F700832725
:1014F000C4FC98CB832784FE85072324F4FE0327AE
:1015000084FE9D47E3F3E7F48327C4FC032744FEEE
:1015100098C3832784FC9A239307F00F63F0E70EA8
:101520008327C4FCDC432322F4FE232404FE6DA89D
:10153000832784FEA1070547B317F700232EF4FC89
:10154000832784FC9E233E878327C4FDF98F2320B5
:10155000F4FE032704FE8327C4FD6312F7088327E4
:1015600084FE8A07232EF4FC8327C4FD3D47B3176E
:10157000F700232CF4FC832784FD93C7F7FF032790
:1015800044FEF98F2322F4FE8327C4FD0327C4FE03
:10159000B317F700032744FED98F2322F4FE8327D5
:1015A00084FC984793078002631BF700832784FE1F
:1015B000A10705473317F7008327C4FCD8CB83273F
:1015C00084FC984793078004631BF700832784FEFD
:1015D000A10705473317F7008327C4FC98CB83275F
:1015E00084FE85072324F4FE032784FE9D47E3F150
:1015F000E7F48327C4FC032744FED8C301007254D8
:1016000021618280011122CE00102326A4FEAE8724
:101610002315F4FE0357A4FE8327C4FE98CB0100D4
:10162000724405618280011122CE00102326A4FE9F
:10163000AE872315F4FE0357A4FE8327C4FED8CB40
:101640000100724405618280797122D60018232E30
:10165000A4FC232CB4FC232404FE232204FE232612
:1016600004FE232004FE8327C4FD63D80700B707C8
:101670000140DC4F2326F4FE31A0B7070140DC43D4
:101680002326F4FE8327C4FDC183BD8B2320F4FEF3
:101690000327C4FDC167FD17F98F2324F4FE8327B8
:1016A000C4FD63D607080327C4FDB70730007D8F4C
:1016B000B70730006314F702832704FEC1070D4704
:1016C000B317F7002322F4FE832744FE93C7F7FFE6
:1016D0000327C4FEF98F2326F4FED5A80327C4FDF3
:1016E000B7071000F98F95C3832704FE0D47B31782
:1016F000F7002322F4FE832744FE93C7F7FF032756
:10170000C4FEF98F2326F4FED9A08327C4FDD58318
:1017100093F7F73F9207032784FEB317F70093C7A9
:10172000F7FF0327C4FEF98F2326F4FE4DA00327FD
:10173000C4FDB70730007D8FB70730006315F7028F
:101740000327C4FEB70700F1FD17F98F2326F4FE27
:10175000B7070140D443B7070140370700F17D17B1
:10176000758FD8C3ADA00327C4FDB7071000F98F4C
:101770008DCB832704FE0D47B317F7002322F4FE19
:10178000832744FE93C7F7FF0327C4FEF98F232660
:10179000F4FE0327C4FEB707000FD98F2326F4FEFB
:1017A0003DA08327C4FDD5839207032784FEB3178A
:1017B000F70093C7F7FF0327C4FEF98F2326F4FE33
:1017C0000327C4FEB707000FD98F2326F4FE832713
:1017D00084FD85C38327C4FDD58393F7F73F920724
:1017E000032784FEB317F7000327C4FED98F2326EF
:1017F000F4FE8327C4FD63D80700B7070140032721
:10180000C4FED8CF31A0B70701400327C4FED8C318
:101810000100325445618280797122D60018232E4E
:10182000A4FC03A741818947631BF7048327C4FDF8
:1018300098338D4763E5E7048327C4FD9C23BE8668
:101840008327C4FD9C339A071397870161878327F9
:10185000C4FDBC239607E207E187D98FE207E18741
:1018600093F7F70F2326D4FEA305F4FE37E700E035
:101870008327C4FEBA970347B4FE2380E74083273B
:10188000C4FDDC439DC78327C4FD9C232322F4FEB3
:10189000832744FEFD8B0547B316F70037E700E0CA
:1018A000832744FE9583938707048A07BA9794C3D6
:1018B00035A08327C4FD9C232320F4FE832704FE48
:1018C000FD8B0547B316F70037E700E0832704FEDA
:1018D0009583938707068A07BA9794C30100325409
:1018E00045618280797122D60018232EA4FC23261C
:1018F00004FEB7170240DC432326F4FE0327C4FE90
:10190000D177FD17F98F2326F4FE0327C4FE832722
:10191000C4FDD98F2326F4FEB71702400327C4FE67
:10192000D8C30100325445618280397122DE8000C3
:101930002326A4FC232204FE232604FE232004FEE7
:10194000232E04FCA30504FEA30D04FCB7170240DC
:10195000DC43B18B2322F4FE032744FE914763034B
:10196000F702032744FEA1476306F702832744FEDC
:10197000639D07208327C4FC37177A0013070720CD
:1019800098C329AC8327C4FC37177A0013070720B4
:1019900098C329A4B7170240D843B7073C00F98F72
:1019A0002326F4FEB7170240D843C167F98F2320DE
:1019B000F4FE8327C4FEC98389072326F4FEB7F704
:1019C000FF1F9387C77098439167F98F91EB0327A7
:1019D000C4FEC5476319F704C9472326F4FEA1A036
:1019E0000327C4FE89476315F700C9472326F4FE81
:1019F0000327C4FEBD476318F700B5472326F4FE4E
:101A00008547A305F4FE0327C4FEC1476315F7000D
:101A1000BD472326F4FE0327C4FEC5476315F70020
:101A2000C1472326F4FE832704FEA1E3B747024003
:101A3000938707809C43C18B89CF0327C4FEB717C8
:101A40007A00938707203307F7028327C4FC98C3E3
:101A500039AA0327C4FEB7173D00938707903307C1
:101A6000F7028327C4FC98C319A2B7170240D857BE
:101A7000C167F98FE9C7B7170240DC579183BD8B67
:101A8000850737177A00130707203357F702832794
:101A9000C4FC98C3B7170240DC57A18393F7F70F34
:101AA000BD8BA30DF4FC8347B4FD89EF8327C4FCF1
:101AB0009843BA878A07BA9713D717008327C4FCBD
:101AC00098C385A00347B4FD85476310F7028327B9
:101AD000C4FC9843BA878607BA978E07BA9713D77C
:101AE00017008327C4FC98C32DA80347B4FDBD4746
:101AF000631EF7008327C4FC9843BA878A07BA9706
:101B00008A073E878327C4FC98C321A88327C4FC87
:101B10009C430347B4FD09073387E7028327C4FCCE
:101B200098C38327C4FC9843B7170240DC57BD8B8A
:101B300085073357F7028327C4FC98C339A8B71722
:101B40000240DC57BD8B850737177A001307072043
:101B50003357F7028327C4FC98C38327C4FC9843F8
:101B60008327C4FE3307F7028327C4FC98C30347C7
:101B7000B4FE85476313F7028327C4FC9C4313D745
:101B800017008327C4FC98C309A88327C4FC371710
:101B90007A001307072098C311A00100B71702406D
:101BA000DC4393F7070F2322F4FE832744FE91833F
:101BB0002322F4FEB70700201387C712832744FEB1
:101BC000BA979C2393F7F70F232EF4FC8327C4FCCA
:101BD00098438327C4FD3357F7008327C4FCD8C339
:101BE000B7170240DC4393F707702322F4FE8327E4
:101BF00044FEA1832322F4FEB70700201387C712F7
:101C0000832744FEBA979C2393F7F70F232EF4FC07
:101C10008327C4FCD8438327C4FD3357F7008327A9
:101C2000C4FC98C7B7170240D843916793870780D1
:101C3000F98F2322F4FE832744FEAD832322F4FE92
:101C4000B70700201387C712832744FEBA979C2347
:101C500093F7F70F232EF4FC8327C4FCD843832784
:101C6000C4FD3357F7008327C4FCD8C7B717024019
:101C7000D843B167F98F2322F4FE832744FEB9834A
:101C80002322F4FEB70700201387471A832744FE58
:101C9000BA979C2393F7F70F232EF4FC8327C4FCF9
:101CA000D8478327C4FD3357F7028327C4FC98CB5A
:101CB0000100725421618280011122CE001023267E
:101CC000A4FE2324B4FE832784FE99CBB7170240D9
:101CD000D44BB71702400327C4FE558FD8CB21A899
:101CE000B7170240D44B8327C4FE13C7F7FFB717BB
:101CF0000240758FD8CB01007244056182800111CA
:101D000022CE00102326A4FE2324B4FE832784FEC3
:101D100099CBB7170240944FB71702400327C4FE70
:101D2000558F98CF21A8B7170240944F8327C4FE40
:101D300013C7F7FFB7170240758F98CF01007244A1
:101D400005618280011122CE00102326A4FE2324E7
:101D5000B4FE832784FE99CBB7170240D44FB71740
:101D600002400327C4FE558FD8CF21A8B7170240E1
:101D7000D44F8327C4FE13C7F7FFB7170240758FF0
:101D8000D8CF0100724405618280011122CE00107B
:101D90002326A4FE2324B4FE832784FE99CBB71701
:101DA0000240D447B71702400327C4FE558FD8C757
:101DB00021A8B7170240D4478327C4FE13C7F7FFF3
:101DC000B7170240758FD8C7010072440561828041
:101DD000797122D60018232EA4FC232CB4FC2317DF
:101DE00004FE8327C4FD9E232317F4FE0327C4FDAE
:101DF000B7370140938707C06306F7060327C4FD82
:101E0000B70700406300F7060327C4FDB70700408B
:101E1000938707406308F7040327C4FDB717004002
:101E2000938707806300F7040327C4FDB7170040BA
:101E3000938707C06308F7020327C4FDB737014043
:101E4000938707406300F7020327C4FDB75701409B
:101E5000938707C06308F7000327C4FDB757014005
:101E60006310F7028357E4FE93F7F7F82317F4FEA5
:101E7000832784FDBA238357E4FED98F2317F4FE0A
:101E80000327C4FDB71700406308F7020327C4FD0A
:101E9000B7170040938707406300F7028357E4FEBB
:101EA00093F7F7CF2317F4FE832784FDFA23835794
:101EB000E4FED98F2317F4FE8327C4FD0357E4FE05
:101EC0009AA3832784FDDA238327C4FDDAB7832707
:101ED00084FD9A238327C4FD9AB70327C4FDB7372F
:101EE0000140938707C06308F7020327C4FDB73793
:101EF0000140938707406300F7020327C4FDB757EB
:101F00000140938707C06308F7000327C4FDB75754
:101F10000140631BF700832784FD9C27139707016B
:101F200041838327C4FD9ABB8327C4FD0547DAABF1
:101F30000100325445618280797122D60018232E27
:101F4000A4FC232CB4FC231504FE231704FE231643
:101F500004FE8327C4FD9E33C207C183F99B1397F8
:101F6000070141838327C4FD9AB38327C4FD9E33B1
:101F70002317F4FE8327C4FDDE232316F4FE8327F4
:101F8000C4FD9E2F2315F4FE8357A4FE93F7F7F8A4
:101F90002315F4FE8357A4FEF19B2315F4FE83273B
:101FA00084FD9A238357A4FED98F2315F4FE83570B
:101FB000E4FEF59B2317F4FE832784FD9A278357BD
:101FC000E4FED98F2317F4FE832784FDBA238357B9
:101FD000E4FED98F2317F4FE0327C4FDB737014071
:101FE000938707C06308F7020327C4FDB737014092
:101FF000938707406300F7020327C4FDB7570140EA
:10200000938707C06308F7000327C4FDB757014053
:102010006318F7068357E4FEDD9B2317F4FE83273E
:1020200084FDBA278357E4FED98F2317F4FE835724
:10203000E4FEED9B2317F4FE832784FDDA23835708
:10204000E4FED98F2317F4FE8357C4FE93F7F7EF0E
:102050002316F4FE8357C4FE93F7F7DF2316F4FE2E
:10206000832784FDDA278357C4FED98F2316F4FE15
:10207000832784FDFA278357C4FED98F2316F4FEE5
:102080008327C4FD0357C4FEDAA38327C4FD035787
:10209000A4FE9AAF832784FDFA238327C4FDDABB0D
:1020A0008327C4FD0357E4FE9AB30100325445610F
:1020B0008280797122D60018232EA4FC232CB4FC34
:1020C000231504FE231704FE231604FE8327C4FDF4
:1020D0009E33C207C183BD9B1397070141838327AA
:1020E000C4FD9AB38327C4FD9E332317F4FE8327D0
:1020F000C4FDDE232316F4FE8327C4FD9E2F231583
:10210000F4FE0357A4FEE577FD17F98F2315F4FEBF
:102110008357A4FE93F7F7CF2315F4FE832784FD9E
:102120009E23A2071397070141838357A4FED98FEB
:102130002315F4FE8357E4FE93F7F7FD2317F4FE0F
:10214000832784FD9E2792071397070141838357B6
:10215000E4FED98F2317F4FE832784FDBE23920764
:102160001397070141838357E4FED98F2317F4FEA9
:102170000327C4FDB7370140938707C06308F70200
:102180000327C4FDB7370140938707406300F70278
:102190000327C4FDB7570140938707C06308F700C2
:1021A0000327C4FDB7570140631CF7088357E4FEBB
:1021B00093F7F7F72317F4FE832784FDBE279207D2
:1021C0001397070141838357E4FED98F2317F4FE49
:1021D0008357E4FE93F7F7FB2317F4FE832784FD70
:1021E000DE2392071397070141838357E4FED98FBB
:1021F0002317F4FE8357C4FE93F7F7BF2316F4FEAC
:102200000357C4FEFD779387F77FF98F2316F4FEFB
:10221000832784FDDE278A071397070141838357AD
:10222000C4FED98F2316F4FE832784FDFE278A0778
:102230001397070141838357C4FED98F2316F4FEF9
:102240008327C4FD0357C4FEDAA38327C4FD0357C5
:10225000A4FE9AAF832784FDFA238327C4FD9ABF87
:102260008327C4FD0357E4FE9AB30100325445614D
:102270008280797122D60018232EA4FC232CB4FC72
:10228000231504FE231704FE231604FE8327C4FD32
:102290009E33C207C18393F7F7EF1397070141837A
:1022A0008327C4FD9AB38327C4FD9E332317F4FE0E
:1022B0008327C4FDDE232316F4FE8327C4FDDE2F0F
:1022C0002315F4FE8357A4FE93F7F7F82315F4FEC5
:1022D0008357A4FEF19B2315F4FE832784FD9A23E4
:1022E0008357A4FED98F2315F4FE8357E4FE93F79A
:1022F000F7DF2317F4FE832784FD9E27A207139799
:10230000070141838357E4FED98F2317F4FE832707
:1023100084FDBE23A2071397070141838357E4FE80
:10232000D98F2317F4FE0327C4FDB73701409387E5
:1023300007C06308F7020327C4FDB737014093873E
:1023400007406300F7020327C4FDB7570140938796
:1023500007C06308F7000327C4FDB7570140631E99
:10236000F7080357E4FEFD779387F77FF98F23176C
:10237000F4FE832784FDBE27A2071397070141833C
:102380008357E4FED98F2317F4FE8357E4FE93F7B7
:10239000F7BF2317F4FE832784FDDE23A2071397DC
:1023A000070141838357E4FED98F2317F4FE0357B7
:1023B000C4FEFD77FD17F98F2316F4FE0357C4FE04
:1023C000F977FD17F98F2316F4FE832784FDDE27A6
:1023D00092071397070141838357C4FED98F2316B1
:1023E000F4FE832784FDFE2792071397070141839C
:1023F0008357C4FED98F2316F4FE8327C4FD0357E9
:10240000C4FEDAA38327C4FD0357A4FEDAAF8327F3
:1024100084FDFA238327C4FDDABF8327C4FD035755
:10242000E4FE9AB30100325445618280797122D66C
:102430000018232EA4FC232CB4FC231604FE231521
:1024400004FE231704FE8327C4FD9E331397070160
:102450004183FD77FD17F98F139707014183832788
:10246000C4FD9AB38327C4FD9E332315F4FE83274E
:10247000C4FDDE232317F4FE8327C4FDDE2F2316BD
:10248000F4FE0357C4FEE577FD17F98F2316F4FE1B
:102490008357C4FE93F7F7CF2316F4FE832784FDFA
:1024A0009E23A2071397070141838357C4FED98F48
:1024B0002316F4FE0357A4FEF977FD17F98F2315B1
:1024C000F4FE832784FD9E27B207139707014183FB
:1024D0008357A4FED98F2315F4FE832784FDBE23E2
:1024E000B2071397070141838357A4FED98F2315A1
:1024F000F4FE0327C4FDB7370140938707C0630884
:10250000F7020327C4FDB7370140938707406300F4
:10251000F7020327C4FDB7570140938707C063083C
:10252000F7000327C4FDB75701406315F7020357AF
:10253000E4FEF177FD17F98F2317F4FE832784FD5E
:10254000DE279A071397070141838357E4FED98F4B
:102550002317F4FE8327C4FD0357E4FEDAA3832781
:10256000C4FD0357C4FEDAAF832784FDFA23832713
:10257000C4FD2390E7048327C4FD0357A4FE9AB348
:102580000100325445618280011122CE00102326C1
:10259000A4FE2324B4FE832784FE99CF8327C4FEA0
:1025A0009E23C207C18393E7170013970701418356
:1025B0008327C4FE9AA329A88327C4FE9E23C207AB
:1025C000C183F99B1397070141838327C4FE9AA314
:1025D0000100724405618280011122CE0010232681
:1025E000A4FE2324B4FE832784FE95C38327C4FE60
:1025F00083D74704139707014183E177D98F139756
:10260000070141838327C4FE2392E70415A0832793
:10261000C4FE83D74704139707014183A167FD17C1
:10262000F98F1397070141838327C4FE2392E704A0
:102630000100724405618280011122CE0010232620
:10264000A4FE2324B4FE832784FE99CF8327C4FEEF
:102650009E23C207C18393E70708139707014183AD
:102660008327C4FE9AA331A88327C4FE9E23C207F2
:10267000C18393F7F7F71397070141838327C4FEBC
:102680009AA30100724405618280797122D60018F4
:10269000232EA4FCAE87231DF4FC231704FE8327FE
:1026A000C4FD9E2F2317F4FE8357E4FEDD9B231702
:1026B000F4FE0357E4FE8357A4FDD98F2317F4FEDD
:1026C0008327C4FD0357E4FE9AAF010032544561ED
:1026D0008280797122D60018232EA4FCAE87231D98
:1026E000F4FC231704FE8327C4FD9E2F2317F4FE5A
:1026F0000357E4FEFD779387F77FF98F2317F4FEE6
:102700008357A4FDA2071397070141838357E4FE73
:10271000D98F2317F4FE8327C4FD0357E4FE9AAF35
:102720000100325445618280797122D60018232E2F
:10273000A4FCAE87231DF4FC231704FE8327C4FDED
:10274000DE2F2317F4FE8357E4FEDD9B2317F4FEF0
:102750000357E4FE8357A4FDD98F2317F4FE832784
:10276000C4FD0357E4FEDAAF0100325445618280B4
:10277000797122D60018232EA4FCAE87231DF4FC09
:10278000231704FE8327C4FDDE2F2317F4FE03570F
:10279000E4FEFD779387F77FF98F2317F4FE8357C5
:1027A000A4FDA2071397070141838357E4FED98F45
:1027B0002317F4FE8327C4FD0357E4FEDAAF0100BC
:1027C000325445618280011122CE00102326A4FEDE
:1027D000AE872315F4FE8327C4FE0357A4FEDABB9D
:1027E0000100724405618280011122CE001023266F
:1027F000A4FEAE872315F4FE8327C4FE0357A4FE70
:102800009ABF0100724405618280011122CE00103E
:102810002326A4FEAE872315F4FE8327C4FE0357A8
:10282000A4FEDABF0100724405618280011122CE4C
:1028300000102326A4FEAE872315F4FE8327C4FED2
:102840000357A4FE2390E7040100724405618280CF
:102850005D7186C6A2C48008232EA4FA232CB4FA84
:10286000232404FE232604FE232204FE232004FE48
:10287000232E04FC8327C4FB232EF4FC8327C4FBF4
:102880009E2BC207C1832324F4FE032784FEB56771
:10289000FD17F98F2324F4FE832784FBFE233E8754
:1028A000832784FED98F2324F4FE832784FE139785
:1028B000070141838327C4FB9AAB8327C4FBDE2730
:1028C000C207C1832324F4FE032784FEBD679387D8
:1028D000379FF98F2324F4FE832784FBDA23832791
:1028E00084FB9E27D98F139707014183832784FB9D
:1028F000BE27D98FC207C1833E87832784FED98F25
:102900002324F4FE832784FE139707014183832742
:10291000C4FBDAA78327C4FBDE2BC207C1832324B1
:10292000F4FE032784FEC1679387F7CFF98F232432
:10293000F4FE832784FBDE273E87832784FED98F1E
:102940002324F4FE832784FE139707014183832702
:10295000C4FBDAAB930784FC3E85EFE01FFD032741
:10296000C4FDB7470140938707806317F7008327AB
:1029700044FD2326F4FE29A0832704FD2326F4FE2C
:102980000327C4FEBA878607BA978E073E97832728
:1029900084FB9C438A07B357F7022322F4FE0327E4
:1029A00044FE93074006B357F70292072324F4FE30
:1029B000832784FE13D7470093074006B307F70227
:1029C000032744FEB307F7402320F4FE832704FEC9
:1029D00092071387270393074006B357F702BD8B6F
:1029E000032784FED98F2324F4FE832784FE1397C4
:1029F000070141838327C4FB9AA70100B640264400
:102A000061618280011122CE00102326A4FE2324BE
:102A1000B4FE832784FE85C38327C4FEDE27139775
:102A2000070141838967D98F139707014183832762
:102A3000C4FEDAA705A08327C4FEDE27139707018B
:102A40004183F977FD17F98F139707014183832796
:102A5000C4FEDAA70100724405618280797122D632
:102A60000018232EA4FCAE87232AC4FC231DF4FCEB
:102A7000232404FE232204FE232004FE232604FE36
:102A80008327C4FD2326F4FE8357A4FD93F7F70F95
:102A9000958393F7F70F2324F4FE8357A4FDFD8B52
:102AA0002322F4FE832744FE0547B317F7002320B3
:102AB000F4FE032784FE85476318F7008327C4FECE
:102AC000B1072326F4FE0DA0032784FE894763186F
:102AD000F7008327C4FEC1072326F4FE31A0832715
:102AE000C4FED1072326F4FE832744FD99CB832718
:102AF000C4FE94438327C4FE032704FE558F98C366
:102B000021A88327C4FE9443832704FE13C7F7FF3D
:102B10008327C4FE758F98C30100325445618280BB
:102B2000011122CE00102326A4FEAE872315F4FE49
:102B30008357A4FE93F7F71F139707014183832759
:102B4000C4FEDAA30100724405618280011122CE25
:102B500000102326A4FE8327C4FEDE23C207C18300
:102B600093F7F71FC207C1833E85724405618280D7
:102B7000797122D60018232EA4FCAE87231DF4FC05
:102B8000232604FE8327C4FD9E2313970701418358
:102B90008357A4FDF98FC207C18389C785472326C0
:102BA000F4FE19A0232604FE8327C4FE3E8532547A
:102BB00045618280797122D60018232EA4FCAE874D
:102BC000231DF4FC232204FE232604FE232004FEFE
:102BD000232404FE8357A4FD93F7F70F958393F7FF
:102BE000F70F2320F4FE8357A4FDFD8B2326F4FE6C
:102BF0008327C4FE0547B317F7002326F4FE0327F7
:102C000004FE8547631EF7008327C4FDDE27C20745
:102C1000C1833E878327C4FEF98F2326F4FE2DA8A7
:102C2000032704FE8947631EF7008327C4FD9E2BFC
:102C3000C207C1833E878327C4FEF98F2326F4FE93
:102C400021A88327C4FDDE2BC207C1833E878327CB
:102C5000C4FEF98F2326F4FE8357A4FDA183C20787
:102C6000C1832322F4FE832744FE0547B317F700F0
:102C70002322F4FE8327C4FD9E23C207C1833E871F
:102C8000832744FEF98F2322F4FE8327C4FE81CBE1
:102C9000832744FE89C785472324F4FE19A02324F3
:102CA00004FE832784FE3E8532544561828079711B
:102CB00022D60018232EA4FCAE87231DF4FC231774
:102CC00004FE231604FE8357A4FDA1832317F4FEFC
:102CD0008357E4FE0547B317F7002316F4FE835726
:102CE000C4FE93C7F7FF1397070141838327C4FDF1
:102CF0009AA30100325445618280397106DE22DCDC
:102D00008000232804FC232A04FC232C04FC232E0B
:102D100004FC232004FE232204FE232404FE232695
:102D200004FE232204FC232404FC232604FC854502
:102D30004145EFE0DFFC854513050020EFE03FFC57
:102D40003165EFE03FBAA1472312F4FC232604FCCF
:102D5000930744FCBE8537150140EFE08FE8B727A5
:102D6000014013850740EFD0BFD1232804FC232A5C
:102D700004FC8547232CF4FCB7070E00232EF4FC3B
:102D8000232004FE85472302F4FE930704FDBE853D
:102D9000B727014013850740EFD09FD48545B7275B
:102DA000014013850740EFD09FE78545B7270140D5
:102DB00013850740EFD0DFE28145B7270140138537
:102DC0000740EFE0AF9CB727014013850740EFD0E5
:102DD000FFE80100B727014013850740EFD03FEA25
:102DE000AA87EDFBB727014013850740EFD03FECE2
:102DF0000100B727014013850740EFD07FEDAA8778
:102E0000EDFB0100F2506254216182805D7186C643
:102E1000A2C48008232EA4FA232CB4FA232AC4FACD
:102E2000B6872319F4FA232204FC232404FC232666
:102E300004FC232804FC232A04FC232C04FC232E5A
:102E400004FC232004FE232204FE232404FE232664
:102E500004FE85450545EFE03FE60325C4FBEFE0B2
:102E6000AF98832784FB2322F4FC832744FB23248D
:102E7000F4FC232604FC835724FB2328F4FC232A98
:102E800004FC93070008232CF4FC93070010232E66
:102E9000F4FC930700402320F4FE93070002232252
:102EA000F4FE8D672324F4FE232604FE930744FCDE
:102EB000BE850325C4FBEFE04FC40100B6402644A5
:102EC00061618280411106C622C400083D359387A6
:102ED000818185463E86B72701409385C744B70761
:102EE0000240138587001D378545B70702401385CB
:102EF0008700EFE00FCB9D460546B545B72701405B
:102F000013850740EFD01FE48545B727014013859F
:102F10000740EFD0FFDE0100B24022444101828031
:102F2000797106D622D40018232EA4FC83A7C18170
:102F30006391071C8327C4FD98279307A00A631594
:102F4000F7028327C4FD9387C710314681453E852C
:102F5000EFD00FA78327C4FD98278327C4FD2386BE
:102F6000E710054723AEE18003A7C18185476314BD
:102F7000F7188327C4FD98378327C4FDA386E7107D
:102F8000094723AEE18003A7C18189476317F7167C
:102F90008327C4FDB8278327C4FD2387E7100D4787
:102FA00023AEE18003A7C1818D47631AF7148327FD
:102FB000C4FDB8378327C4FDA387E7108327C4FD6A
:102FC000BC378DCB8327C4FDBC373E85EF20806C9A
:102FD000AA873E878327C4FD23A8E7108327C4FD63
:102FE00083A7071181E723AE018019AA114723AEF9
:102FF000E18021A0154723AEE18003A7C18191475D
:10300000631CF7048327C4FD83A70711A5C72326E4
:1030100004FE35A08327C4FE138747008327C4FD21
:1030200083A607118327C4FEB6978326C4FD36976F
:10303000182798A38327C4FE85072326F4FE832739
:10304000C4FD83C7F7103E878327C4FEE3C4E7FCB3
:10305000154723AEE18039A88327C4FD83A7071154
:103060003E85EF20C0638327C4FD23A8071023AE4D
:10307000018079A003A7C18195476310F7068327D4
:10308000C4FD83C7F71091070327C4FDBA9798279B
:103090009307F00F6315F7028327C4FD83C7F7106A
:1030A00091070327C4FDBA9798278327C4FD238A75
:1030B000E7100325C4FD892823AE018039A88327A2
:1030C000C4FD83A707113E85EF20605D8327C4FD03
:1030D00023A8071023AE018025A08327C4FD83A762
:1030E00007113E85EF20A05B8327C4FD23A80710AE
:1030F00001A8010031A0010021A0010011A00100E0
:10310000B250225445618280797106D622D40018CB
:10311000232EA4FC8327C4FD9387C7102326F4FE27
:103120008327C4FE9C331307200D6388E70213072F
:10313000300D6381E7041307100D639AE7048327BA
:10314000C4FEB8238327C4FED4438327C4FEBC3304
:103150003E86B6853A85852025A899671385C713CD
:10316000EF10E0568327C4FD9C438325C4FE3E85B3
:10317000652839A8996713850715EF1040558327EF
:10318000C4FDDC438325C4FE3E85792811A00100DF
:103190008327C4FEDC4399CB8327C4FEDC433E85F2
:1031A000EF20E04F8327C4FE23A207000100B250A6
:1031B000225445618280797106D622D40018AA87EC
:1031C000232CB4FC3287A30FF4FCBA87230FF4FC42
:1031D000232604FE89A099670327C4FE0E07938760
:1031E000071ABA979C230347F4FD6311F702196786
:1031F0008327C4FE1307071A8E07BA97D84383475D
:10320000E4FDBE85032584FD029719A88327C4FE2B
:1032100085072326F4FE0327C4FE9547E3FDE7FA5E
:10322000B2502254456182806971232611122324F1
:103230008112001A232EA4EC232CB4EC8327C4EDB6
:103240002322F4FE930704EE2326F4FE8327C4FE14
:10325000138717002326E4FE032784ED182398A381
:103260008327C4FE138717002326E4FE032784ED7B
:10327000183398A38327C4FE138717002326E4FE80
:10328000032784ED382398A38327C4FE13871700F0
:103290002326E4FE032784ED383398A3832784EDA7
:1032A000BC3395CB832784EDDC4395C7832784ED1E
:1032B000D843832784EDBC333E86BA850325C4FEFC
:1032C000EF20803E832784EDBC333E878327C4FEF6
:1032D000BA972326F4FE8327C4FE138717002326FC
:1032E000E4FE032784ED182798A3930704EE232018
:1032F000F4FE0327C4FE832704FEB307F740C2078A
:10330000C183BE85032504FEEF106033930704EEEE
:103310002324F4FE0DA8832784FE9C23C207C183C7
:10332000BE85032544FEEFF0AFFF010093050008C2
:10333000032544FEEFF0DF83AA87EDDB832784FEBD
:1033400085072324F4FE032784FE8327C4FEE36459
:10335000F7FC01008320C112032481125561828091
:10336000011106CE22CC00102326A4FEAE87A305B1
:10337000F4FE8565B7170140138507C0EFE0AFAADB
:103380000347B4FE99476316F7208327C4FE9823AA
:1033900085476315F700EF00503B11A88327C4FE53
:1033A0008507982385476314F700EF00303D832796
:1033B000C4FE8907982385476311F7080387A18115
:1033C0009307500463CEE70E8387A18193F7F70F2D
:1033D000890793F7F70F139787016187238DE180A2
:1033E0008387A181C207C187BE850145EF00F06FC9
:1033F0008387A181C207C183B307F040C207C1839D
:10340000C207C187BE850945EF00306E8387A18161
:10341000C207C187BE850D45EF00306D8387A1814E
:10342000C207C183B307F040C207C183C207C18787
:10343000BE851545EF00706B61A08327C4FE8D0724
:1034400098238547631EF7068387A181635AF00698
:103450008387A18193F7F70FF91793F7F70F139766
:1034600087016187238DE1808387A181C207C1879E
:10347000BE850145EF0070678387A181C207C183C4
:10348000B307F040C207C183C207C187BE850945A3
:10349000EF00B0658387A181C207C187BE850D4556
:1034A000EF00B0648387A181C207C183B307F040F6
:1034B000C207C183C207C187BE851545EF00F06210
:1034C0008327C4FE9107982385476311F706038776
:1034D000B1819307900563CEE70A8387B18193F7A3
:1034E000F70F890793F7F70F139787016187A38D6C
:1034F000E1808387B181C207C183B307F040C2076F
:10350000C183C207C187BE850545EF00105E838772
:10351000B181C207C183B307F040C207C183C207AC
:10352000C187BE851145EF00505CA5A08327C4FE6E
:10353000950798238547631EF7048387B181635AF3
:10354000F0048387B18193F7F70FF91793F7F70F1B
:10355000139787016187A38DE1808387B181C207BB
:10356000C183B307F040C207C183C207C187BE85CC
:103570000545EF0090578387B181C207C183B30728
:10358000F040C207C183C207C187BE851145EF0065
:10359000D0550100F240624405618280011106CEDF
:1035A00022CC00102326A4FEAE87A305F4FE034719
:1035B000B4FE8547631AF7008327C4FE9823854726
:1035C0006314F700EF00B01E0100F2406244056191
:1035D0008280011122CE00102326A4FEAE87A3050F
:1035E000F4FE0100724405618280011106CE22CCF6
:1035F00000102326A4FEAE87A305F4FE0347B4FE05
:1036000099476310F7228327C4FE98238547631ADE
:10361000F700EF009013996713854716EF10200B02
:1036200039A88327C4FE8507982385476319F700C7
:10363000EF00D014996713854717EF1040098327CF
:10364000C4FE8907982385476311F7080387A18182
:103650009307500463CEE70E8387A18193F7F70F9A
:10366000890793F7F70F139787016187238DE1800F
:103670008387A181C207C187BE850145EF00F0465F
:103680008387A181C207C183B307F040C207C1830A
:10369000C207C187BE850945EF0030458387A181F8
:1036A000C207C187BE850D45EF0030448387A181E5
:1036B000C207C183B307F040C207C183C207C187F5
:1036C000BE851545EF00704261A08327C4FE8D07BB
:1036D00098238547631EF7068387A181635AF00606
:1036E0008387A18193F7F70FF91793F7F70F1397D4
:1036F00087016187238DE1808387A181C207C1870C
:10370000BE850145EF00703E8387A181C207C1835A
:10371000B307F040C207C183C207C187BE85094510
:10372000EF00B03C8387A181C207C187BE850D45EC
:10373000EF00B03B8387A181C207C183B307F0408C
:10374000C207C183C207C187BE851545EF00F039A6
:103750008327C4FE9107982385476311F7060387E3
:10376000B1819307900563CEE70A8387B18193F710
:10377000F70F890793F7F70F139787016187A38DD9
:10378000E1808387B181C207C183B307F040C207DC
:10379000C183C207C187BE850545EF001035838709
:1037A000B181C207C183B307F040C207C183C2071A
:1037B000C187BE851145EF005033A5A08327C4FE05
:1037C000950798238547631EF7048387B181635A61
:1037D000F0048387B18193F7F70FF91793F7F70F89
:1037E000139787016187A38DE1808387B181C20729
:1037F000C183B307F040C207C183C207C187BE853A
:103800000545EF00902E8387B181C207C183B307BE
:10381000F040C207C183C207C187BE851145EF00D2
:10382000D02C0100F240624405618280011106CE75
:1038300022CC00102326A4FEAE87A305F4FE034786
:10384000B4FE8547631DF7008327C4FE9C2381EBEC
:10385000EF00E075996713850718EF0050670100C6
:10386000F240624405618280011122CE00102326BD
:10387000A4FEAE87A305F4FE0100724405618280B8
:10388000011106CE22CC0010232204FE232404FEC4
:10389000232604FE85452145EFE06FC6C147232658
:1038A000F4FE85672312F4FE8D472324F4FE93076C
:1038B00044FEBE85B7170140138507C0EFD07FB225
:1038C0008565B7170140138507C0EFD0BFD301004E
:1038D000F2406244056182805D7186C6A2C48008A0
:1038E000AA87AE863287231FF4FAB687231EF4FA1E
:1038F000BA87231DF4FA232204FE232404FE232680
:1039000004FE232A04FC232C04FC232E04FC232085
:1039100004FE232404FC232604FC231804FC854510
:103920003145EFE0CFBD85450945EFE0AFC19307D5
:10393000000C2312F4FEE1472326F4FE8D472324D6
:10394000F4FE930744FEBE85B71701401385078038
:10395000EFD03FA98D472312F4FE930744FEBE85A6
:10396000B7170140138507C0EFD0BFA78357E4FB0B
:103970002316F4FC8357C4FB2314F4FC231704FC24
:10398000231504FC930784FCBE85B707004013850C
:103990000740EFE0EFC393070006231AF4FC8547C6
:1039A000231BF4FC8357A4FB231DF4FC231E04FCFF
:1039B000930744FDBE85B707004013850740EFE03D
:1039C000AFD7930744FDBE85B70700401385074076
:1039D000EFE02FEE930744FDBE85B7070040138547
:1039E0000740EFE01F89930744FDBE85B7070040FD
:1039F00013850740EFE09FA3A145B707004013855B
:103A00000740EFE09FC8A145B70700401385074076
:103A1000EFE03FCCA145B707004013850740EFE03A
:103A2000BFD0A145B707004013850740EFE05FD442
:103A30008545B707004013850740EFE0FFB985458E
:103A4000B707004013850740EFE01FBF8545B70764
:103A5000004013850740EFE03FB30100B640264425
:103A6000616182805D7186C6A2C48008AA87AE8625
:103A70003287231FF4FAB687231EF4FABA87231D70
:103A8000F4FA232204FE232404FE232604FE232A20
:103A900004FC232C04FC232E04FC232004FE2324FA
:103AA00004FC232604FC231804FC85452145EFE093
:103AB0000FA585451145EFE0EFA89307003C2312C1
:103AC000F4FEE1472326F4FE8D472324F4FE9307FA
:103AD00044FEBE85B7170140138507C0EFD07F9025
:103AE0008357E4FB2316F4FC8357C4FB2314F4FC34
:103AF000231704FC231504FC930784FCBE85B71729
:103B0000004013850780EFE0AFAC93070006231A4F
:103B1000F4FC8547231BF4FC8357A4FB231DF4FC12
:103B2000231E04FC930744FDBE85B7170040138590
:103B30000780EFE06FC0930744FDBE85B7170040D4
:103B400013850780EFE0EFD6930744FDBE85B717D6
:103B5000004013850780EFE0CFF1930744FDBE8559
:103B6000B717004013850780EFE05F8CA145B717BA
:103B7000004013850780EFE05FB1A145B717004013
:103B800013850780EFE0FFB4A145B7170040138508
:103B90000780EFE07FB9A145B71700401385078084
:103BA000EFE01FBD8545B717004013850780EFE0A4
:103BB000BFA28545B717004013850780EFE0DFA758
:103BC0008545B717004013850780EFE0FF9B010094
:103BD000B640264461618280411106C622C40008B5
:103BE000130620039305F03B13053006F531130649
:103BF00020039305F03B13053006AD350100B240BC
:103C0000224441018280797106D622D40018AA8705
:103C10002E87231FF4FCBA87231EF4FC8357E4FD90
:103C2000638007320357E4FD914763EBE7300317E6
:103C3000C4FD9307C0F96340F7028357C4FD939610
:103C40000701C186130740066354D7009307400657
:103C5000C207C18719A09307C0F9231EF4FC83573C
:103C6000E4FD1387F7FFBA878607BA978A071967B3
:103C70001307071DBA972326F4FE8317C4FD635369
:103C8000F00E8327C4FEDC430947638AE702094735
:103C90006366F7000547638AE70085A00D47638ADE
:103CA000E70211476381E70489A88327C4FE9C4388
:103CB0000357C4FDBA853E85EFE0FFB035A88327E2
:103CC000C4FE9C430357C4FDBA853E85EFE0DFB1D7
:103CD00025A08327C4FE9C430357C4FDBA853E85B7
:103CE000EFE0BFB211A88327C4FE9C430357C4FD75
:103CF000BA853E85EFE09FB301008327C4FE9C4751
:103D000009476388E70209476366F7000547638A46
:103D1000E70005AC0D476386E7021147638BE702B6
:103D20000DA48327C4FE9C4381453E85EFE0BFA9D7
:103D300009AC8327C4FE9C4381453E85EFE0DFAAA2
:103D400009A48327C4FE9C4381453E85EFE0FFAB79
:103D5000CDAA8327C4FE9C4381453E85EFE01FAD7D
:103D60000100C5A28317C4FD63D307108327C4FED7
:103D7000DC4309476388E70209476366F7000547A4
:103D8000638AE70081A80D476386E7021147638BCA
:103D9000E70289A08327C4FE9C4381453E85EFE06E
:103DA0009FA205A88327C4FE9C4381453E85EFE082
:103DB000BFA305A08327C4FE9C4381453E85EFE059
:103DC000DFA401A88327C4FE9C4381453E85EFE024
:103DD000FFA501008327C4FE9C470947638EE702C5
:103DE00009476366F7000547638AE70099AA0D470C
:103DF0006382E7041147638DE704A1A28327C4FE11
:103E00009C430357C4FD3307E04042074183BA8512
:103E10003E85EFE05F9B35A28327C4FE9C4303579A
:103E2000C4FD3307E04042074183BA853E85EFE099
:103E3000BF9B01AA8327C4FE9C430357C4FD3307DD
:103E4000E04042074183BA853E85EFE01F9CD5A83C
:103E50008327C4FE9C430357C4FD3307E040420759
:103E60004183BA853E85EFE07F9C0100D9A8832776
:103E7000C4FEDC4309476388E70209476366F7002D
:103E80000547638AE70081A80D476386E70211476B
:103E9000638BE70289A08327C4FE9C4381453E854E
:103EA000EFE07F9205A88327C4FE9C4381453E85B1
:103EB000EFE09F9305A08327C4FE9C4381453E8588
:103EC000EFE0BF9401A88327C4FE9C4381453E8553
:103ED000EFE0DF9501008327C4FE9C470947638814
:103EE000E70209476366F7000547638AE70091A880
:103EF0000D476386E7021147638BE70299A083278A
:103F0000C4FE9C4381453E85EFE0FF8B1DA88327BF
:103F1000C4FE9C4381453E85EFE01F8D1DA0832795
:103F2000C4FE9C4381453E85EFE03F8E19A8832760
:103F3000C4FE9C4381453E85EFE05F8F010011A0E8
:103F40000100B250225445618280411106C622C44C
:103F500000089305400605457D319305C0F90945E4
:103F60005D319305C0F90D4579399305C0F91145C7
:103F700059390100B240224441018280411106C6F4
:103F800022C400089305C0F90545B53993054006DC
:103F900009459539930540060D45B5319305400611
:103FA000114595310100B240224441018280411106
:103FB00006C622C4000881450545B1318145094541
:103FC000993181450D458131814511452D390100DA
:103FD000B2402244410182805D7186C6A2C480083D
:103FE000AA87AE863287231FF4FAB687231EF4FA17
:103FF000BA87231DF4FA232204FE232404FE232679
:1040000004FE232A04FC232C04FC232E04FC23207E
:1040100004FE232404FC232604FC231804FC854509
:104020004145EFD0DFCD85450965EFD05FCD9307E2
:10403000003C2312F4FEE1472326F4FE8D4723249F
:10404000F4FE930744FEBE8537150140EFD06FB9EB
:104050008357E4FB2316F4FC8357C4FB2314F4FCBE
:10406000231704FC231504FC930784FCBE85B73793
:10407000014013850740EFD0BFD593070006231AF0
:10408000F4FC8547231BF4FC231C04FC8357A4FB8E
:10409000231DF4FC231E04FC231F04FC231004FE38
:1040A000231104FE930744FDBE85B73701401385F5
:1040B0000740EFD07FE8930744FDBE85B737014046
:1040C00013850740EFD0FFFE930744FDBE85B73749
:1040D000014013850740EFE0CF99930744FDBE856B
:1040E000B737014013850740EFE04FB4A145B7371C
:1040F000014013850740EFE04FD9A145B737014094
:1041000013850740EFE0EFDCA145B7370140138589
:104110000740EFE06FE1A145B73701401385074045
:10412000EFE00FE58545B737014013850740EFE025
:10413000AFCA8545B737014013850740EFE0CFCFC1
:104140008545B737014013850740EFE0EFC3010015
:10415000B6402644616182805D7186C6A2C4800833
:10416000AA87AE863287231FF4FAB687231EF4FA95
:10417000BA87231DF4FA232204FE232404FE2326F7
:1041800004FE232A04FC232C04FC232E04FC2320FD
:1041900004FE232404FC232604FC231804FC854588
:1041A00013050002EFD0BFB5854537050800EFD0F5
:1041B0001FB585450545EFD09FB48567938707A058
:1041C0002312F4FEE1472326F4FE8D472324F4FE58
:1041D000930744FEBE85B717014013850740EFD013
:1041E0004FA08545B707138013850701EFD0CFC5D2
:1041F0008357E4FB2316F4FC8357C4FB2314F4FC1D
:10420000231704FC231504FC930784FCBE85B757D1
:104210000140138507C0EFD0BFBB93070006231AE8
:10422000F4FC8547231BF4FC231C04FC8357A4FBEC
:10423000231DF4FC231E04FC231F04FC231004FE96
:10424000231104FE930744FDBE85B7570140138533
:1042500007C0EFD07FCE930744FDBE85B75701401E
:10426000138507C0EFD0FFE4A145B7570140138580
:1042700007C0EFE08FC1A145B7570140138507C0C4
:10428000EFE02FC58545B7570140138507C0EFE024
:10429000AFB48545B7570140138507C0EFE0CFB9EC
:1042A0008545B7570140138507C0EFE0EFAD01002A
:1042B000B640264461618280411106C622C40008CE
:1042C0001306401F9305F00595671385F7E16935DF
:1042D0001306401F9305F00595671385F7E1ED3947
:1042E0000100B240224441018280797106D622D475
:1042F0000018232EA4FCAE87231DF4FC0317A4FD95
:10430000930760FA6340F7028357A4FD9396070171
:10431000C1861307A0056354D7009307A005C20701
:10432000C18719A0930760FA231DF4FC8317A4FD2D
:104330001387A7059307007DB307F7023E85EF10AB
:104340008027996703A6071983A64719EF0030460F
:10435000AA872E883E85C285996703A6871983A6FA
:10436000C719312BAA872E883E85C285EF10E01E23
:10437000AA872317F4FE19678327C4FD13070720B4
:104380008E07BA97D44399670327C4FD0E07938716
:104390000720BA979C430357E4FEBA853E85829670
:1043A0000100B250225445618280411106C622C4E8
:1043B000000881450145153F814505453D3781454B
:1043C0000945253781450D450D3781451145313F5B
:1043D00081451545193F0100B240224441018280C8
:1043E0005D7186C6A2C48008232EA4FA232204FE8F
:1043F000232404FE232604FE232A04FC232C04FC8D
:10440000232E04FC232004FE232604FC232804FC82
:104410008545916713854700EFD07F8E9307002075
:104420002312F4FE8D472324F4FEE1472326F4FEF5
:10443000930744FEBE85B717014013850780EFC080
:104440005FFA930700402312F4FE91472326F4FEFF
:10445000930744FEBE85B717014013850780EFC060
:104460005FF88327C4FB232AF4FC231C04FC231DD0
:1044700004FC231E04FC231004FEB147231FF4FC9C
:10448000930744FDBE85B747014013850780EFE0E1
:104490002FBC054693055052B7470140138507804E
:1044A000EFE0CFDB930750032306F4FC8547A30618
:1044B000F4FC85472307F4FC85472328F4FC930785
:1044C000C4FC3E85EFD04FB58545B7470140138505
:1044D0000780EFE02FD30100B6402644616182805F
:1044E0005D7186C6A2C48008232EA4FA232204FE8E
:1044F000232404FE232604FE232A04FC232C04FC8C
:10450000232E04FC232004FE232604FC232804FC81
:10451000854537050800EFD0FF8285451305000467
:10452000EFD0EFFD85450545EFD06FFD8545B70719
:10453000308013852700EFD02F9185472312F4FE9A
:104540008D472324F4FEE1472326F4FE930744FE1F
:10455000BE85B727014013850780EFC09FE88947D4
:104560002312F4FE91472326F4FE930744FEBE85F2
:10457000B727014013850780EFC0BFE68327C4FB40
:10458000232AF4FC231C04FC231D04FC231E04FC2E
:10459000231004FEB147231FF4FC930744FDBE859E
:1045A000B7570040138507C0EFE08FAA0546930573
:1045B0005052B7570040138507C0EFE02FCA93074A
:1045C00040042306F4FC8547A306F4FC894723072F
:1045D000F4FC85472328F4FC9307C4FC3E85EFD008
:1045E000AFA38545B7570040138507C0EFE08FC1E3
:1045F0000100B640264461618280011106CE22CCC2
:104600000010AA87A307F4FE8347F4FEC207C18304
:10461000BE85B747014013850780EFE06FD00100EA
:1046200093050008B747014013850780EFE04FD49A
:10463000AA87FDD70100F24062440561828079714A
:1046400006D622D40018232EA4FCAE87231DF4FC2A
:104650008357A4FD2326F4FE29A88327C4FD1387CE
:104660001700232EE4FC8387070093F7F70F3E859E
:1046700069378327C4FE1387F7FF2326E4FEF1FF83
:104680000100B250225445618280011106CE22CC35
:104690000010AA87A307F4FE8347F4FEC207C18374
:1046A000BE85B7570040138507C0EFE06FC7010014
:1046B00093050008B7570040138507C0EFE04FCBC4
:1046C000AA87FDD70100F2406244056182804D71E6
:1046D0002326111223248112001A232EA4EC4CC08D
:1046E00010C454C418C85CC8232C0401232E140120
:1046F0009307040291172322F4FE032744FE930735
:1047000044EEBA860326C4ED930500103E85EF10F3
:1047100020242324A4FE232604FE0DA08327C4FE08
:10472000130704FFBA97838747EF93F7F70F3E8588
:10473000E9358327C4FE85072326F4FE0327C4FE3C
:10474000832784FEE34CF7FC01008320C11203247D
:104750008112716182804D712326111223248112EE
:10476000001A232EA4EC4CC010C454C418C85CC852
:10477000232C0401232E14019307040291172322F2
:10478000F4FE032744FE930744EEBA860326C4EDE5
:10479000930500103E85EF10A01B2324A4FE2326C2
:1047A00004FE0DA08327C4FE130704FFBA97838776
:1047B00047EF93F7F70F3E85C93D8327C4FE850772
:1047C0002326F4FE0327C4FE832784FEE34CF7FC74
:1047D00001008320C1120324811271618280411182
:1047E00022C60008B707002003A7071AB7177A00E8
:1047F00093870720B357F70213F7F70F2380E1825F
:1048000083C701821397070141839307803EB30753
:10481000F7021397070141832391E182010032449B
:1048200041018280011122CE00102326A4FE03A79D
:1048300081808327C4FE3E9793870183636DF700D1
:1048400003A781808327C4FE3E97B7870020938704
:10485000078063F4E700FD5739A803A78180832709
:10486000C4FE3E9723A4E18003A781808327C4FE72
:10487000B307F040BA973E857244056182803708DD
:10488000100001117D183377B80026CA3378D8009C
:1048900093D4450113D34601131E37004EC6135758
:1048A000D5010E089357D60193F4F47F1373F37F69
:1048B00006CE22CC4AC893D9F50193DEF6013367C0
:1048C000C701131F350033E80701931F3600338EED
:1048D00064406380D9196356C0136304031CB70690
:1048E00080009307F07F3368D800638FF436930716
:1048F000800363C0C735FD4763CDC747130500027A
:104900003305C541B3D7CF01B316A8003399AF0023
:10491000DD8E33392001B357C80133E926011D8FDD
:1049200033092F41B3372F013306F7409317860021
:1049300063D40724370780007D173374E600630CC7
:10494000042C2285EF00304E130785FF93070002E9
:10495000998FB357F9003316E400D18F3319E9006A
:104960006341972A33059740130615007D47634D31
:10497000C73813070002118FB356C9003319E90075
:104980003397E700558F333920013369270133D638
:10499000C70081449377790081CF1377F90091475D
:1049A0006308F70013074900333927014A963A890B
:1049B0009317860063D6071C138514009307F07FB6
:1049C000CE856304F520B70780FFFD17F18F93981C
:1049D000D70113593900A607B3E82801B18313752D
:1049E000F57F9396C7005205F2406244B182FE05FE
:1049F000C98ECD8ED2444249B2494685B6850561FD
:104A00008280631E0E0A138314001373E37F6317FF
:104A10000322B367E701B368F801639D041A638753
:104A20000740638608443309FF41B3070741333623
:104A30002F013386C7409317860063D6074C33890E
:104A4000EF41B307E84033B62F013386C740F689FC
:104A500091B76350C00F6300030CB7068000930743
:104A6000F07F3368D800638AF43A9307800363CBFE
:104A7000C713FD4763DFC73513090EFE9307000216
:104A8000B3562801630AFE00130900043309C94123
:104A900033192801B3EF2F013339F0013369D900FD
:104AA00031A2B367F801638A071C9307FEFF638C8A
:104AB00007389306F07F6309DE1A3E8E0DBDB305FD
:104AC000934063910422B367E701638707329387BA
:104AD000F5FF638107449306F07F638CD520BE8584
:104AE0009307800363CCB72AFD4763CFB73C930796
:104AF00000028D8F3319F700B356BF00B317FF00C4
:104B00003369D900B337F0003357B7003369F90080
:104B10003308E84041ACB367F8016380073493077A
:104B2000FEFF638A07209306F07F6308DE2E3E8E29
:104B30002DBF631E0E149386140093F7E67F6391D6
:104B40000734B367E7016395042C6380073EB367BE
:104B5000F801638E07303309FF01B3070701333FC4
:104B6000E9013386E7019317860063D70700B7078B
:104B700080FFFD177D8E854493777900E39F07E0E2
:104B80009317D60193583900B3E8F80093573600CD
:104B90001307F07F638DE404B207B18313F5F47F4C
:104BA000CE8581B53369F801333920017A99B3375D
:104BB000E9013386E70093178600E3DF07FA8504EF
:104BC0009307F07F6396F418CE851305F07F814735
:104BD000814801BDC1EB6384083A931636009317F0
:104BE000D8018D82B3E8D700F68993573800B3E730
:104BF000F800F9DB81451305F07FB707080081480D
:104C0000CDB3370680FF7D167D8E93777900998C22
:104C1000E39507D8B5B74A85EF00F0201307850163
:104C2000FD47E3D5E7D2130685FFB317C900014955
:104C300005BB3369F80133392001DDB13309FF4188
:104C40003306074133342F01330486409317840021
:104C500063CD0724B3688900E39308CE8147814977
:104C600081441DBFE39808F80E059317D7010D8105
:104C7000B3E8A700935737009DBF0E059317D701E0
:104C80000D81B3E8A700F2849357370011B73305BD
:104C9000934063820412B70680009307F07F558F1C
:104CA000630DF32E9307800363CBA720FD4763C3F7
:104CB000A72A93070002898F3319F700B356AF0074
:104CC000B317FF003369D900B337F0003357A7009B
:104CD0003369F9003A987E99B337F90133860701B1
:104CE0009A84D1BDB70680009307F07F558FE319F2
:104CF000F3DE931736008D839318D801B3E81701BC
:104D0000F68993573800E5B5130715FE93060002A0
:104D100033D7E700630AD600930600043386C64003
:104D20003396C7003369C900333920013369E9007C
:104D30000146814491B53309FF01B30707013336BA
:104D4000E9013E96931786008544E3D707E289443C
:104D5000B70780FFFD17F18F13571900137919005A
:104D6000336927019398F70133E9280113D6170017
:104D700015B113090EFE93070002B3562801630A0A
:104D8000FE00130900043309C94133192801B3EFA8
:104D90002F013339F0013369D90059B63369E7017E
:104DA0003339200133892F41B3B72F013306F8403F
:104DB0009A84F689A5BEB367E70163820718930753
:104DC000F5FF6384071C9306F07F6304D5123E85CC
:104DD000D1BD93070002B387C741B316F8003399DA
:104DE000FF0033D6CF01D18E33392001B357C8012C
:104DF00033E926013E975DBB931736008D839318E8
:104E0000D801B3E81701AE8493573800F68949B347
:104E1000EDC33369F801E31F09DC0E059317D701D1
:104E20000D81B368F50093573700D1B36381080E45
:104E3000931636009317D8018D82B3E8D700F68910
:104E40009357380091BB3309FF41B3070741333F04
:104E50002F013386E7418544D1BC0E059317D70156
:104E60000D81B368F500F2849357370015B30E0532
:104E70009317D7010D81B3E8A7009357370029BBDB
:104E80009307F07FE382F6D43309FF013336E9015B
:104E9000B3070701B2979398F7011359190033E943
:104EA000280113D61700B684C1B93389EF413307FF
:104EB000E84033B62F013304C740F68949B433695B
:104EC000E7013339200101BD938705FE93060002F7
:104ED000B357F700638AD50093060004B385B64044
:104EE0003317B700336FEF003339E0013369F9004E
:104EF00055BD931736008D839318D801B3E8170179
:104F000093573800EDB1B368C900E39708C68147ED
:104F1000814959B13389EF41B307E84033B62F01D6
:104F20003386C740F689854411B49316360093172B
:104F3000D8018D82B3E8D70093573800B1B99316E2
:104F400036009317D8018D82B3E8D700AA8493570F
:104F500038003DB9930705FE93060002B357F700EA
:104F6000630AD500930600043385A6403317A700D3
:104F7000336FEF003339E0013369F900A9BB814594
:104F80001305F07FB7070800A9BC3309FF01B30779
:104F900007013336F9013E9675B393163600931721
:104FA000D8018D82B3E8D7009357380089B13971A1
:104FB00093D7450122DC4AD856D22A891394C500DA
:104FC00006DE26DA4ED652D45AD05ECE13F5F77FDF
:104FD000318093DAF501630A05109307F07F6309C6
:104FE000F514135AD9010E0433648A00370A80007D
:104FF000336A4401131B3900930415C00144814BEB
:1050000013D846011399C6001378F87FB288135954
:10501000C90093D9F601630E08089307F07F630077
:10502000F8041357D6010E0933692701130818C075
:10503000B70780003367F90093183600B384044142
:105040008145BD4733C83A0163E2871A97170000CC
:105050009387471E0A043E9410403E9602863367AB
:10506000C9009384148063100710136424008148DE
:105070008945C1BF1306F07F81470147B207F2504F
:1050800062545206B1837E08D18FB3E70701D25430
:105090004259B259225A925A025BF24B3A85BE8566
:1050A0002161828001481306F07FB707080001479D
:1050B000F1B73367C9005DC3630509304A8532C45F
:1050C0009D232246130755FFF547930685FF998FC9
:1050D0003319D900B357F60033E72701B318D600C8
:1050E00026959304353F8145A9BF336A24016302A5
:1050F0000A0636C632C46305042A22852D232246B9
:10510000B246AA84130755FF754A138B84FF330AEE
:10511000EA4033146401335A4901336A8A00331B6D
:1051200069011305D0C0B30495400144814BC9BD4A
:10513000336A240163180A002144014B9304F07F71
:10514000894B7DBD228A4A8B31449304F07F8D4B7D
:1051500045BD1144014B8144854B5DB5136414007A
:1051600081488545F9BD136434004A878D45D1BD1A
:105170006308052E8547898F9306800363DBF6322B
:10518000014681470147DDBDCE868947638BF53AED
:105190008D47E389F5F085473688E383F5FE13856F
:1051A000F43FE357A0FC93F778006394072893D665
:1051B00038009317770063D80700B70700FFFD1783
:1051C0007D8F138504409307E07FE3C5A7EA13169C
:1051D000D70193179700B1833367D6001376F57F15
:1051E00071BDD6865287DA88DE8545B7636F472161
:1051F000630BEA20DA86FD145284014B9317870073
:1052000013D388013363F300935E0301B357D403D0
:10521000131F0301135F0F0193D50601139E88002E
:105220003374D4033307FF024204C18D63FBE500EE
:105230009A951386F7FF63EC652663FAE526F9175E
:105240009A95998D33D7D503C206C182B3F5D5039C
:105250003306EF02C205D58D63FBC5009A95930610
:10526000F7FF63E4652463F2C52479179A95C207B2
:1052700041645D8F9307F4FF3375F700935807017E
:10528000935F0E01B377FE00B302F502B386C5400B
:10529000B383F80293D502013386AF021E962E9691
:1052A0003385F803637376002295C168FD18935522
:1052B0000601337616014206B3F81201AA95469606
:1052C00063E4B6126380B6123306CB408D8E333B57
:1052D000CB00338B66411385F43F630A6317B358E1
:1052E000DB0393550601337BDB03B3061F03420B3D
:1052F00033EB6501637BDB001A9B9385F8FF636BDF
:105300006B206379DB20F9181A9B330BDB40B35613
:10531000DB0342064182337BDB03330FDF02420BA8
:1053200033666601637BE6011A969385F6FF636533
:10533000661E6373E61FF9161A96C208B3E8D80012
:105340009395080193D20801C181B38EF50233060B
:10535000E641B385BF0293D60E01B387F202BE9534
:10536000AE96B38F5F0263F4F600C167BE9FC1655E
:10537000FD1593D70601ED8EC206B3FEBE00BE9F9B
:10538000F696637DF6091A969387F8FF6367661AA7
:105390006366F619630DF61BBE8893E8180011B515
:1053A0004A85512413075501F1459304050222460D
:1053B000B246E3DBE5D4130485FF331A8900014BC1
:1053C0008DB3328532C4852413075501F146AA876F
:1053D000224613050502E3D9E6CEE1173317F6009E
:1053E0008148FDB9E372CBEE729B3335CB011A9540
:1053F000AA961305F7FF6378D30263E6B6106382BB
:10540000D5102A87D1B5E3671BDF93551B00931690
:10541000FA0113541A00CD8E7E0BCDB3E31FF6F7BD
:10542000E38106D88DB7E31ED3FCE378CBFD2A8752
:1054300061BD93F7F8009146E38BD7D693B7C8FFC9
:105440009386480093C717008D823E979DB381468F
:105450008547E34CA0FEFD58E31E05D0930410C021
:1054600085471385E441B316A70033D6F80033957A
:10547000A800D18E3335A000C98E13F676003357BD
:10548000F70001CE93F7F60011466388C7009387B3
:105490004600B3B6D7003697BE869317870063D809
:1054A0000704054681470147D1BE3687C9B3B28795
:1054B00049BBFD46E3D7F6FA0556098E930600026E
:1054C0003356C7006388D7009387E443B317F700C8
:1054D000B3E8F800B3361001D18E13F67600814799
:1054E00001CE93F7F60011460147E392C7FA9317EE
:1054F00097001316D701B18313D73600518F014699
:10550000B5BEE370CBF0729B3335CB011A9579179A
:10551000AA965DBBAE88D5BBAE8605B593171E00B7
:1055200033BEC70172931A96F9183E8EE317F6E759
:10553000E309DEC693E81800ADB1BE88E30AF6FFC2
:10554000A9BD36881306F07F8147014705BEE36792
:10555000DEFCBE88E310DEFEA9B193D74501B70695
:1055600010001387F6FF93F7F77F1306E03F2A88B2
:105570006D8F0145FD816354F60099C18280828060
:105580001306E0417D55E34BF6FE130530431D8DB8
:105590007D46558F634AA6009387D7BE3317F70021
:1055A0003355A800598D828013053041B307F5406B
:1055B0003355F7008280411106C622C426C205CDAC
:1055C0009357F541B3C4A7009D8C2A842685A12852
:1055D0009306E041898EA9477D8093F6F67F63CDDF
:1055E000A7022D47098FB3D7E4005505B207B3943E
:1055F000A400B18329A00144814681478144B207B8
:10560000D206B1837E04D58FC18FB2402244268555
:10561000BE859244410182805515B397A400B2071C
:10562000B1838144E9BFC167637CF5029307F00F42
:105630001307000263EBA70097170000938787C347
:10564000AA9788233305A7408280218197170000FD
:10565000938747C2AA97882361473305A740828072
:10566000B7070001636DF50061819717000093870C
:1056700067C0AA97882321473305A74082804181CC
:1056800097170000938707BFAA97882341473305E0
:10569000A74082809387C180AA8588438DA2938783
:1056A000C180AA85884355A8B3C7A5008D8B330751
:1056B000C50081E78D4763EDC700AA87637EE508D3
:1056C000942185078505A38FD7FEE3EBE7FE828053
:1056D00093763500AA8789CA942185078505A38F0B
:1056E000D7FE93F63700C5BF9376C7FF138606FE35
:1056F00063F0C70683A3050083A2450083AF85003E
:1057000003AFC50083AE050103AE450103A38501C8
:1057100083A8C5019385450223A0770003A8C5FF90
:1057200023A2570023A4F70123A6E70123A8D7014A
:1057300023AAC70123AC670023AE17019387470252
:1057400023AE07FF75B790419107910523AEC7FEC1
:10575000E3EBD7FEE3E6E7F68280CDC183A7C5FF82
:10576000411122C406C626C21384C5FF63D30700B5
:105770003E94AA84F522938741829C4399EB23228D
:10578000040023A281822244B24026859244410132
:10579000C9AA637EF40014403307D4006396E7007F
:1057A0009843DC43369718C05CC0E1BFBA87D84342
:1057B00019C3E37DE4FE94433386D700631F86005C
:1057C0001040B29694C33386D700E31EC7FA104345
:1057D0005843B29694C3D8C37DB76375C400B1472C
:1057E0009CC055B71040B306C4006316D7001443DD
:1057F0005843B29614C058C0C0C371B7828001111B
:1058000026CA93843500F19806CE22CC4AC84EC6EB
:10581000A104B14763F1F404B14463E0B4042A89FC
:1058200081229387418298433A8431E09387818231
:105830009C4391E781454A85512823A4A182A685EE
:105840004A856920FD5963173507B1472320F900C0
:105850004A85012A29A0E3D204FCB1471CC10145B5
:10586000F2406244D2444249B249056182801C4000
:10587000858F63CE0702AD4663F6F6001CC03E94EA
:1058800004C031A05C406312870223A2F1824A85E2
:10589000C9281305B4009307440061993307F54004
:1058A00061D33A94898F1CC065BF5CC3CDB7228792
:1058B0004040A5BF130435007198E30385FCB30590
:1058C000A4404A852120E31D35FB41B7411122C484
:1058D0002A842E8523A6018206C6EFE0BFF4FD5779
:1058E0006317F5009387C1829C4391C31CC0B240EB
:1058F0002244410182801971A2DC86DEA6DA32845C
:10590000635B06009307B0081CC17D55F6506654D2
:10591000D654096182803686930680202EC42ECC10
:10592000F482814519C09305F4FFFD572EC82ECE91
:10593000BA862C00FC83AA842922FD576355F50002
:105940009307B0089CC079D0A247238007007DBF91
:105950009387C1803687B2862E86AA85884361BF29
:105960008280828001114AC803A9850022CC52C4DA
:105970005AC006CE26CA4EC656C22E84328B368AEE
:1059800063E82609DE2513F7074849C304408C491C
:105990005848AA8AB389B4408D44B384E4020947C5
:1059A000B3C4E402138716004E9763F3E400BA848D
:1059B00093F70740ADCFA685568591352A891DE11D
:1059C000B14723A0FA005E247D5593E707045EA447
:1059D000F2406244D2444249B249224A924A024BBE
:1059E000056182800C484E86EFF01FCC5E2493F751
:1059F000F7B793E707085EA42328240144C84E990B
:105A0000B38434412320240104C4528963732A01DE
:105A1000528908404A86DA85892D1C440145B3879E
:105A200027411CC41C403E992320240155B72686DB
:105A30005685BD2D2A8969F10C485685EFF0FFD1B6
:105A400041B7DE25717126D34AD14ECF06D722D574
:105A500052CD56CB5AC95EC762C566C393F70708D5
:105A6000AA892E89B284B9C39C49A9E3930500048D
:105A700036C6EFF0DFD82320A9002328A900B246BC
:105A800015E1B14723A0F9007D55BA502A549A5424
:105A90000A59FA496A4ADA4A4A4BBA4B2A4C9A4C92
:105AA0004D61828093070004232AF90093070002C6
:105AB000A30CF1029307000302DA230DF10236CEA4
:105AC000930B5002971A0000938ACA8A054C294BFF
:105AD00026841C2099C363977709B30C9440638D87
