:040000006F003061FC
:100004000000000000000000CE070000D007000040
:1000140000000000100E00000000000000000000BE
:10002400100E0000100E0000000000000000000090
:10003400100E000000000000100E00000000000080
:10004400100E0000100E0000100E0000100E000034
:10005400100E0000100E0000100E0000100E000024
:10006400100E0000100E0000100E0000100E000014
:10007400100E0000100E0000100E0000100E000004
:10008400100E0000100E0000100E0000100E0000F4
:10009400100E0000100E0000100E0000100E0000E4
:1000A400100E0000960B0000100E0000100E000051
:1000B400100E0000100E0000100E0000100E0000C4
:1000C400100E0000100E0000100E0000100E0000B4
:1000D400100E0000E0070000100E0000100E0000DB
:1000E400100E0000100E0000100E0000100E000094
:1000F400100E0000100E0000100E0000100E000084
:1001040000000000100E0000100E0000100E000091
:10011400AC080000100E0000100E0000100E0000CD
:10012400100E0000100E0000100E0000100E000053
:10013400100E0000100E0000100E0000100E000043
:10014400100E0000100E0000100E0000100E000033
:10015400100E0000100E0000100E0000100E000023
:10016400100E0000100E0000100E0000100E000013
:10017400100E0000100E0000100E0000100E000003
:10018400100E0000100E0000100E0000100E0000F3
:10019400100E0000100E0000100E0000100E0000E3
:1001A400000000000000000000000000000000004B
:0C01B4000000000000000000000000003F
:1001C000397101436EC619A0397141536AC866CAB4
:1001D00062CC5ECE19A0397101535AD056D252D496
:1001E0004ED64AD826DA22DC06DE3301614082820E
:1001F00041114AC026C222C406C68282B24D4101C4
:10020000024D924C224CB24B4101024B924A224A7F
:10021000B2494101024992442244B24041018280E4
:100220003D432A876373C3029377F700BDEFADE5C3
:10023000937606FF3D8ABA960CC34CC30CC74CC7D5
:100240004107E36BD7FE11E28280B306C3408A0602
:100250009702000096966780A6002307B700A306C2
:10026000B7002306B700A305B7002305B700A30412
:10027000B7002304B700A303B7002303B700A3020A
:10028000B7002302B700A301B7002301B700A30002
:10029000B7002300B700828093F5F50F9396850091
:1002A000D58D93960501D58D61B79396270097025A
:1002B000000096968682E78086FA9680C1171D8F89
:1002C0003E96E374C3F8A5B7EFF29FF2411185455E
:1002D000414502C202C402C6EF005066C1477C829B
:1002E000C1473EC64C008D47371501403EC4EF0064
:1002F000903BC14537150140EF00D047410119BF80
:10030000EFF21FEF8547C1456317F5003715014030
:10031000EF00104601B737150140EF00B045DDBFD3
:10032000EFF21FED9C41A43111713EC02A892E8449
:100330005C0089C8CC4199C53E852686EF10004DEA
:10034000B30795001824938417000A8498A3636464
:1003500094001161C1B50C204A85EF00107F930510
:1003600000084A85EF00707F7DD90504CDB7854729
:10037000639AF500EFF2DFE71C21054591E30145A3
:10038000413749BD8280EFF2BFE62A84AE84AA8558
:100390003725000041111305052832C6D12E9307D9
:1003A000B00C6316F40032462685B285C937410188
:1003B00095B5EFF2FFE38345D5102A843725000079
:1003C0001305452E75268347D4101307100D63EAD5
:1003D000E7001307200D637EF7001307300D638FCE
:1003E000E7000325041109C5EF10A04123280410DC
:1003F00015B548409305C4102537E5B70346F410FA
:10040000832504110345E410BD3FE1BFEFF25FDE39
:100410001389018283270900D1E718259307A00AD1
:100420006312F7082A84314681451305C510CD3B78
:100430009307A0FA372500002306F4109305A00ABD
:100440001305052935260C34372500008547A306FA
:10045000B4101305C5292320F900192E2C243725A3
:10046000000089472307B4101305452A2320F9000B
:1004700001262C34372500008D471305C52AA30714
:10048000B4102320F900ED24283435CDEF10C03608
:100490002328A41009E9372500001305452BC92C92
:1004A0002320090085BB9147938401829CC081472A
:1004B0000347F41063C0E70622974C273725000056
:1004C00095471305052D9CC065248347F410A2971A
:1004D000D8279307F00F6318F7043725000013059A
:1004E000C52D79248347F4102285A297BC37230AAF
:1004F000F410C1350325041123A00400EF1060306F
:100500002328041045B703250411EF10802F23285A
:10051000041079B73307F4005427032704113E97DA
:1005200014A3850771B703250411EF10802D23282C
:10053000041023A00400BDB7EFF29FCB4111854505
:100540001305000202C202C402C6EF00303FC147D9
:10055000371401403EC689477C824C008D47130505
:1005600004403EC4EF003014894513050440EF00F9
:100570003020410145B1EFF2BFC705650111854546
:100580001305058002C602C802CA02CC231E010060
:10059000EF00D03A89679387F757373401403ECA56
:1005A0009307301F3ECC4C0893072003130504C06B
:1005B000230EF100EF00503C8545130504C0EF0009
:1005C000704A930790027C8685475C876800854760
:1005D0003EC8EF00701A0546130504C08545EF00BC
:1005E000D0458545130504C0EF00B04305611DB13A
:1005F000EFF21FC0AA84116579718545110502CA01
:1006000002CC02CE02D002D202D402D602C602C866
:10061000EF00D03293070020FC82371401408D4751
:100620003ECC4C08E147130504803ECEEF00B007F6
:1006300093070040FC824C089147130504803ECE8E
:1006400037440140EF003006B7070C000C101305CB
:1006500004803ED426D002D223160102EF0050417E
:1006600005469305505213050480EF00B04A9307E6
:1006700050137C8685475C87680085473EC8EF003D
:10068000B00F854513050480EF007047456159B6EA
:10069000EFF21FB679712A8985453705080002CA2D
:1006A00002CC02CE02D002D202D402D602C602C8C6
:1006B000EF00B02A85452145EF0050288547FC8290
:1006C000371401408D473ECC4C08E147130504C068
:1006D0003ECEEF00407D894491474C08130504C08D
:1006E000E482375400403ECEEF00E07BB7070C00B9
:1006F0000C10130504C03ED44AD002D223160102C6
:10070000EF001037054693055052130504C0EF0063
:100710007040930740147C86680085473EC8448734
:10072000EF0090058545130504C0EF00503D45617D
:10073000D5B4EFF2FFAB37440140AA85130504801E
:10074000EF00B04013040480930500082285EF00F9
:10075000D0407DD9C1B4EFF2BFA92A84B304B5005B
:100760006313940045BC05040345F4FFD937CDBF9E
:1007700029712322B1122324C1122326D1122A86E1
:100780005412930500100808232C8110232A91107D
:10079000232E11102328E112232AF112232C0113F6
:1007A000232E111336C6EF10E030AA840144634AA9
:1007B00094008320C11103248111832441113161EC
:1007C00082801C08A29788230504A537CDB701A015
:1007D000B707EFBE37E700E0938707083CC701A0E3
:1007E000411122C63744014093055052130504803D
:1007F000EF0050374DC513050480EF009035137599
:10080000F50F1307A00A93875182631BE502054782
:1008100098A3B70700209387070023940710B70712
:1008200000209387070003D7871042074183930670
:100830001700C206C1822394D710BA9788A781A84F
:100840001307F00F6311E50623800700B7070020A8
:10085000938707000547238CE71003D787104207CB
:10086000418393061700C206C1822394D7103E9796
:10087000FD5614A703D7871042074183930617003C
:10088000C206C1822394D710BA9723840700374544
:1008900001409305505213050580EF00703032443B
:1008A0004101730020309C23FDD395BFEFF25F948C
:1008B0003754004093055052130504C0EF00902AAE
:1008C00019C593055052130504C0EF00702D6FF049
:1008D0007F9437050020130705008347871193F79E
:1008E000F70F91CBEFF2DF9013050500230C0710F3
:1008F000313E6FF03F928280EFF29F8F83A7418459
:10090000797102C602C802CA02CC02CE02D002D25B
:1009100002D402D675476340F716B7D7C30693874C
:10092000A71A3EC685472308F100FD576800AD456C
:10093000230BF1000D3513052003EF00306683A76C
:10094000C18475476346F714B7D7C3069387A71AC0
:100950003EC6C1673EC86800B707FF00AD453ECA46
:10096000DD3B13052003EF00706383A78184754787
:10097000634CF712B7D7C3069387A71A3EC6B707CB
:10098000FF0002C885076800AD453ECAE93313057C
:100990002003EF00B06083A7C1832D476395E71262
:1009A000B7D7CC019387A71A3EC6930710F0FC80F7
:1009B0006800994523090100793B13052003EF00E6
:1009C000F05D03A7C183A9476313F702B7D7C4013A
:1009D0009387A72A3EC66800930710F09945FC80CC
:1009E000230901008D3B13052003EF00305B03A7B3
:1009F000C183B147631EF702B7D7C701138781824E
:100A00009387A72A3EC61C436800994593C61700E2
:100A1000FD1793B717002308F100FD5714C3A3086F
:100A2000F10023090100053B13052003EF001057D7
:100A30009387418298230DCF2380070083C71183BA
:100A4000D5CBB7D7C5029387A72A3ECCB7070020DE
:100A500083C7171C9D452808230EF100B707002007
:100A600083C7071CA30EF1009307F00FFC87E53145
:100A700045616FF02FFA1307C00DE352F7ECB7D7BB
:100A8000C3069387A71A3EC68547A308F10071BD28
:100A90001307C00DE35BF7ECB7D7C3069387A71A1C
:100AA0003EC6B70700017DB51307C00DE355F7EE4D
:100AB000B7D7C3069387A71A3EC6B707FF0002C879
:100AC00093870710C9B50547E39DE7EEB7D7CE0179
:100AD0009387A71A1387C1823EC61C4393C617008B
:100AE000FD1793B717002308F100FD5714C3A3089F
:100AF000F1007DBDB7D7C6069387A72A3ED293875C
:100B000041809843DE23AD453AD42316F102930782
:100B1000F00F2317F102481099BFEFF2CFEBE1225B
:100B20007164EF00F041EFF03FA1EF00B008EF007B
:100B3000D03FEFF06FF9130504205D3C130504204E
:100B4000813E153C83A5C180372500001305452F44
:100B50000531A926AA853725000013054530093936
:100B6000B549EF00F021138741801E2385071EA39E
:100B70008D33593313054006EF00504283A7C183DC
:100B8000E39137FF9387018388231345150088A3DA
:100B9000EFF00FF7F9B7373501408545130505C06C
:100BA00075250DCD05472382E18293871183982314
:100BB0001337170098A3938741809A2305079AA3B8
:100BC000B70700209387071C9823050798A3B7074A
:100BD00000209387171C9823050798A337350140F9
:100BE0008545130505C0BD2D73002030B7170240A1
:100BF0009843B706FFF041111367170098C3D84315
:100C000037060200758FD8C39843B706F7FEFD1666
:100C1000758F98C39843B706FCFFFD16758F98C370
:100C2000D843B70601FFFD16758FD8C39843B706A2
:100C300000ECFD16758F98C33707FF0098C723A6F1
:100C4000070202C402C69843C166558F98C3B716FF
:100C5000024005679C42F18F3EC6A24785073EC40D
:100C6000B24781E7A247E397E7FEB71702409C43EC
:100C70001397E7006357070685473EC63247854707
:100C8000631FF704B7170240D843B706C1FFFD162C
:100C9000D8C3D843D8C3D84313670740D8C3D84371
:100CA000758FD8C3D843B7062900558FD8C398434A
:100CB000B7060001558F98C3984393166700E3DD8C
:100CC00006FED843B7160240719BD8C3D8431367BA
:100CD0002700D8C32147DC42B18BE39EE7FE4101E8
:100CE000828002C661BFB7160240D8421146318BDE
:100CF0009387C1806305C70021466308C702371781
:100D00007A001307072098C337170240584311830E
:100D10009376F700370700201307C711369714237F
:100D200098433357D70098C38280D842D442416653
:100D300049833D8BF18E1306270015CF3D47630F86
:100D4000E6024147630FE602454781456313E6002B
:100D50004146A1E23747024003270780418B0DC778
:100D600037177A00130707203306C70290C3C9DD7F
:100D70009843058349BF81454946E1BF85453546CE
:100D8000C9BF81453D46F1B737173D0013070790AE
:100D9000E1BF3715024058559316F700585563DFE9
:100DA000060411833D8B9306170037177A0013074B
:100DB00007203357D70298C35455A182BD8A8DE2CC
:100DC00095463307D702058398C337170240585713
:100DD00094433D8B050733D7E60298C3984369B720
:100DE00005456394A600E546E9BF3D456396A60028
:100DF000D1463387E602C9BF8906E5BF3D8B93061E
:100E0000170037177A00130707203357D702F1B7B7
:100E100001A0970100209381E1BA1771002013010E
:100E2000611E171500001305E55297F5FF1F938506
:100E3000651D1386018263FAC5008322050023A085
:100E4000550011059105E3EAC5FE138501829385DE
:100E500001876377B500232005001105E36DB5FE1A
:100E6000FD42739002BCAD4273904280B7620000B5
:100E7000938282087390023097F2FFFF9382C21828
:100E800093E2320073905230EFF05FD69702000089
:100E90009382E2C87390123473002030B7F7FF1FBB
:100EA00003A5477082809C4513F7070113F8F700EC
:100EB00001C7D8413368E8008E2113F7F50F39C315
:100EC00018418146854E3D4F930F80029302800466
:100ED000214E3396DE00B3F8C500631116039398D4
:100EE000260033131F011343F3FF3377E300B318D6
:100EF000180133E7E800639FF70550C98506E39AB8
:100F0000C6FD18C11307F00F6375B704544121469D
:100F1000854E3D4F930F800293028004414EB3985B
:100F2000CE0033F715016392E8021317260001176C
:100F30003313EF001343F3FFB376D3003317E80006
:100F4000D98E639DF701232A15010506E319C6FD15
:100F500054C18280E39457FA10C94DB7E39757FE06
:100F600023281501DDB708456D8D3335A00082803B
:100F70000CC982804CC9828003A741838947102114
:100F80006311F70214318D4763EDD7003C219A06B7
:100F900037E700E09607D58F93F7F70F32972300D6
:100FA000F74054410547935756003317C70089CA85
:100FB000938707048A07B7E600E0B69798C3828054
:100FC00093870706C5BF371702405C439146B18B34
:100FD0006385D700A1466382D706B7177A00938747
:100FE00007201CC1371602405C4237070020130758
:100FF000C7129183BD8BBA9794231C41B3D7D700F6
:101000005CC15442A1829D8ABA969422B3D6D7007D
:1010100014C55442AD829D8A36971823B3D7E70092
:101020005CC5584239839376370013870181369720
:101030001823B3D7E7021CC982805C435843C166BA
:10104000C983758FB7F6FF1F83A6C670BD8B89074E
:101050001396160163480600C54601466392D702FF
:10106000C94739A88946638FD702BD46638ED70228
:10107000C146638ED702C54601466393D700C14778
:101080001DEF3747024003270780418B05C73717FD
:101090007A0013070720B307F7021CC121D61C41B1
:1010A000858381B701466DBF0546B547D1BF01466F
:1010B000BD47F9B737173D0013070790E9BFB715CC
:1010C0000240D8559316F700D85563DF0604118304
:1010D0003D8B9306170037177A0013070720335705
:1010E000D70218C1D455A182BD8A8DE29546330737
:1010F000D702058318C137170240585714413D8B5A
:10110000050733D7E60218C1184171B785456394C6
:10111000B600E546E9BFBD456396B600D1463387C4
:10112000E602C9BF8906E5BF3D8B93061700371756
:101130007A00130707203357D702F1B799C537173D
:1011400002401C4F5D8D08CF8280B7170240984F38
:101150001345F5FF798D88CF828099C537170240F6
:101160005C4F5D8D48CF8280B7170240D84F134542
:10117000F5FF798DC8CF82801E2137370140930655
:1011800007C0C207C1836300D504B7060040630CE3
:10119000D502938606406308D502B7160040138631
:1011A00006806302C502938606C0630ED50013074E
:1011B0000740630AE50037570140930607C0630400
:1011C000D5006316E500BA2193F7F7F8D98F3717E2
:1011D0000040630CE500130707406308E50093F740
:1011E000F7CFFA21C207C183D98F1EA1DE215EB5D8
:1011F0009E211EB5B7370140138707C0630EE50077
:1012000093870740630AF500B7570140138707C06B
:101210006304E5006314F5009C251EB985475EA9AB
:1012200082801E2189C593E717001EA18280C20714
:10123000C183F99BC207C183CDBF5E2501C6DD8D89
:101240004EA5828093C5F5FFFD8DDDBF1E294A2581
:10125000ED8F4205418189C76D8D3335A0008280B5
:101260000145828093C5F5FFC205C1810EA9828028
:10127000EFE21FF81629F577FD17F58FF621DA252D
:101280007971D58F1EA95625FD779387379FF58FE6
:10129000D6212A842EC6D58F9625D58FB625D58FF3
:1012A0005EA55E29C207C18393F7F7CFD98F5EA9E8
:1012B0006808113BB747014093870780B245631E1A
:1012C000F402A2576547B387E702984193064006A8
:1012D0000A07B3D7E70233D7D702B3F7D70212070B
:1012E000920793872703B3D7D702BD8BD98FC20745
:1012F000C1831EA445616FE0FFF19257E1B791C52C
:101300005E250967D98F5EA582805A25F977FD177A
:10131000F98FD5BF13F7F50F85471583B395B70040
:101320006319F7009307C500984301CED98D8CC38C
:101330008280894693074501E318D7FE930705018C
:10134000E5B793C5F5FFF98DDDB793F5F51F4EA110
:1013500082804A211375F51F82800A216D8D3335F5
:10136000A000828013F7F50F85461583B397B6006A
:101370006311D7025A25F98F1A210145420741838B
:1013800081CB0545A181B315B5006D8F3335E000E4
:10139000828089466314D7001A29F1BF5A29E1BF18
:1013A000A1818547B397B70093C7F7FFC207C183F1
:1013B0001EA18280EFE2DFE3411185452145BD3B5F
:1013C0003714014091677C824C0093078004130519
:1013D00004C03EC6C93CED777C82C1473EC64C0086
:1013E0008D47130504C03EC4EFF0FFAB41016FE031
:1013F0007FE2EFE25FDE41118547138701867C873C
:10140000371401402A89A30007007C879384018652
:101410009309F00F130404C03C8763F7F9004145BA
:10142000992641016FE07FDE3C87A1652285B37775
:10143000F9008DCF353E896522851D3E154525264F
:1014400089652285053E1545392E896522850D362B
:1014500091652285093E09C598303C87D98F9CB09B
:101460003C878607C207C1837C877DB72136E1B7F9
:10147000EFE27FD64111371401408547856513059A
:1014800004C0A30601007C8793844181EFF09FAEE6
:10149000882021498549B13F8830130AF00F913FD8
:1014A0008947DC86130404C0938401869C86637C90
:1014B000F900371501408565130505C0EFF05FABF6
:1014C00041016FE09FD4231731013C87637AFA0012
:1014D0004145512C9C86850793F7F70FDC86F9B7B9
:1014E00089652285EFF0DFA81545B52C8965228531
:1014F000EFF05FA81545852C89652285EFF05FA781
:1015000091652285EFF03FA609C9388794869C86AD
:10151000A6969422A697558F98A33C878607C20764
:10152000C1837C875DB7814713870186A546330653
:10153000F700230006008507E39BD7FE8280EFE2D9
:101540003FCBD537353793870186D823BC33B706D1
:10155000002022075D8F239CE1829386C6130145FC
:1015600041469E2205051375F50FFD17B357F74049
:10157000858B89C78906E316C5FE01456FE09FC9C3
:10158000EFE21FC793870186F43323A0D184942709
:1015900023A2D184D43323A4D184F82323A6E184C5
:1015A000793F93870185014701C5942391E22A87FA
:1015B0003335A00023AEE18288A36FE0BFC5EFE220
:1015C0003FC3371401408565130504C0EFF09F9AAF
:1015D0004145512A0545313D13052004193D01457A
:1015E000093D01453935014529358565130504C097
:1015F000EFF01F984145852A6FE0DFC1EFE25FBF42
:10160000371401408565130504C0EFF0BF964145CE
:10161000992A0545F93B13053004E13B0145D13BCF
:101620000545C13B0145F1330145E1330145D13366
:101630000145C1330145753B8565130504C0EFF0D5
:101640003F9341450D226FE0FFBCEFE27FBA3714B4
:1016500001408565130504C0EFF0DF910545513B5E
:1016600013054004793301456933054559330D4568
:1016700049330145BD3B0145AD3B01459D3B01451E
:101680008D3B8565130504C0EFF09F8E4145E12831
:101690006FE05FB8EFE2DFB53714014085651305F1
:1016A00004C0EFF03F8D41457D2805459933130572
:1016B000D00481330145353B0145253B0545153BAC
:1016C0008565130504C0EFF0BF8A414569286FE0C6
:1016D0007FB4EFE2FFB1371401408565130504C004
:1016E000EFF05F8941454120054521331305300462
:1016F00009330145FD390145ED391305A005D539FB
:101700001305A005FD311305A005E5311305A0055E
:10171000CD311305A005F1398565130504C0EFF03F
:101720003F85414589206FE0FFAEEFE27FAC413D50
:1017300079357135E135113FB13F613F6FE09FADC4
:1017400083A7C18037177A0013070720B3D7E702B2
:1017500093F7F70F238AF1841307803EB387E702DC
:101760002399F1848280B7F700E0D8438146799BC2
:10177000D8C303C741853306A70290CBD4CB984387
:101780001367070198C398431367170298C3D84398
:10179000058B75DF9843799B98C38280B7F700E08B
:1017A000D8438146799BD8C303D721853306A70246
:1017B00090CBD4CB98431367070198C39843136722
:1017C000170298C3D843058B75DF9843799B98C35C
:1017D0008280138781811C43938601873E95636BCA
:1017E000D500B78600209386068063E5A60008C36F
:1017F0003E858280FD57EDBF9387C181AA858843CE
:101800008DA29387C181AA85884355A8B3C7A50037
:101810008D8B3307C50081E78D4763EDC700AA872D
:10182000637EE508942185078505A38FD7FEE3EB4A
:10183000E7FE828093763500AA8789CA94218507BE
:101840008505A38FD7FE93F63700C5BF9376C7FFF4
:10185000138606FE63F0C70683A3050083A2450036
:1018600083AF850003AFC50083AE050103AE45011C
:1018700003A3850183A8C5019385450223A07700B2
:1018800003A8C5FF23A2570023A4F70123A6E7015D
:1018900023A8D70123AAC70123AC670023AE1701F1
:1018A0009387470223AE07FF75B7904191079105D3
:1018B00023AEC7FEE3EBD7FEE3E6E7F68280CDC1B9
:1018C00083A7C5FF411122C406C626C21384C5FFE3
:1018D00063D307003E94AA84F522938781859C43B5
:1018E00099EB2322040023AC81842244B240268554
:1018F00092444101C9AA637EF40014403307D40026
:101900006396E7009843DC43369718C05CC0E1BF9C
:10191000BA87D84319C3E37DE4FE94433386D700E6
:10192000631F86001040B29694C33386D700E31E2F
:10193000C7FA10435843B29694C3D8C37DB76375B2
:10194000C400B1479CC055B71040B306C40063162D
:10195000D70014435843B29614C058C0C0C371B7DF
:101960008280011126CA93843500F19806CE22CCDC
:101970004AC84EC6A104B14763F1F404B14463E020
:10198000B4042A8981229387818598433A8431E07F
:101990009387C1859C4391E781454A85512823AEB1
:1019A000A184A6854A856920FD5963173507B1478B
:1019B0002320F9004A85012A29A0E3D204FCB1477B
:1019C0001CC10145F2406244D2444249B24905611A
:1019D00082801C40858F63CE0702AD4663F6F60019
:1019E0001CC03E9404C031A05C406312870223AC4B
:1019F000F1844A85C9281305B4009307440061990E
:101A00003307F54061D33A94898F1CC065BF5CC32E
:101A1000CDB722874040A5BF130435007198E3037A
:101A200085FCB305A4404A852120E31D35FB41B761
:101A3000411122C42A842E8523A6018606C6EFF012
:101A40005FD9FD576317F5009387C1869C4391C307
:101A50001CC0B2402244410182801971A2DC86DEA2
:101A6000A6DA3284635B06009307B0081CC17D557B
:101A7000F6506654D65409618280368693068020DB
:101A80002EC42ECCF482814519C09305F4FFFD5776
:101A90002EC82ECEBA862C00FC83AA842922FD579C
:101AA0006355F5009307B0089CC079D0A247238006
:101AB00007007DBF9387C1813687B2862E86AA85AF
:101AC000884361BF8280828001114AC803A98500D2
:101AD00022CC52C45AC006CE26CA4EC656C22E8446
:101AE000328B368A63E82609DE2513F7074849C397
:101AF00004408C495848AA8AB389B4408D44B384C1
:101B0000E4020947B3C4E402138716004E9763F357
:101B1000E400BA8493F70740ADCFA685568591358A
:101B20002A891DE1B14723A0FA005E247D5593E781
:101B300007045EA4F2406244D2444249B249224AB8
:101B4000924A024B056182800C484E86EFF01FCC12
:101B50005E2493F7F7B793E707085EA423282401D0
:101B600044C84E99B38434412320240104C45289CB
:101B700063732A01528908404A86DA85892D1C44FC
:101B80000145B38727411CC41C403E9923202401F2
:101B900055B726865685BD2D2A8969F10C4856858C
:101BA000EFF0FFD141B7DE25717126D34AD14ECF78
:101BB00006D722D552CD56CB5AC95EC762C566C379
:101BC00093F70708AA892E89B284B9C39C49A9E36F
:101BD0009305000436C6EFF0DFD82320A9002328A0
:101BE000A900B24615E1B14723A0F9007D55BA50CE
:101BF0002A549A540A59FA496A4ADA4A4A4BBA4B61
:101C00002A4C9A4C4D61828093070004232AF900E4
:101C100093070002A30CF1029307000302DA230DDD
:101C2000F10236CE930B5002970A0000938ACA6ED7
:101C3000054C294B26841C2099C363977709B30C64
:101C40009440638D0C00E6862686CA854E85AD3DA0
:101C5000FD576308F518D256E69636DA1C206382E3
:101C60000718FD579304140002D002D63ED202D4C6
:101C7000A301010682DC8C20154656852D2B13848A
:101C80001400825721E513F7070109C71307000263
:101C9000A301E10613F7870009C71307B002A301E8
:101CA000E10694201307A002638AE602B257268455
:101CB00081462546182093051400130707FD63721B
:101CC000E6068DC63ED61DA00504B5B733055541C1
:101CD0003315AC00C98F3ED0A28471BF7247930602
:101CE0004700184336CE634707023AD618209307B9
:101CF000E002631DF70418309307A002631BF7028C
:101D0000F2470904138747009C433ACE63C1070298
:101D10003ED22DA83307E04093E727003AD63ED0C5
:101D2000F1B7B387670385462E84BA9761B7FD572D
:101D3000C5B7050402D28146814725461820930580
:101D40001400130707FD6374E606F9F20C200D4634
:101D5000170500001305C55CB92911CD97070000D0
:101D60009387075C1D8D93070004B397A700025566
:101D700005045D8D2AD00C201946170500001305B7
:101D8000655A93041400230CB102352125C597E749
:101D9000FFFF9387272795E70257F247137707102E
:101DA00009CF91073ECED257D2973EDA61B5B387BD
:101DB000670385462E84BA9751B79D07E19BA1071B
:101DC000D5B7780897060000938646D04A860C104F
:101DD0004E8597000000E7000000FD572A8AE314B3
:101DE000F5FC8357C9007D5593F70704E39107E09D
:101DF0005255F5BB780897060000938626CD4A8693
:101E00000C104E85012AD1BF797156CA9C49BA8AF5
:101E1000984522D426D24ECE52CC06D64AD05AC8A5
:101E20005EC6AA892E84B284368A63D3E700BA8755
:101E30009CC00347340419C385079CC01C4093F71A
:101E4000070281C79C4089079CC0032904001379BD
:101E50006900631A0900130B9401FD5B5C44984010
:101E6000998F634CF9041C408346340493F70702AE
:101E7000B336D000A5EB13063404D2854E85829A82
:101E8000FD576303F5041C4011469840998B544458
:101E900081446397C700B384E64063D30400814460
:101EA0001C4418486354F700998FBE940149690493
:101EB0007D5B63982405014509A885465A86D2852D
:101EC0004E85829A631E75017D55B25022549254FC
:101ED0000259F249624AD24A424BB24B4561828072
:101EE0000509ADBF3307D40013060003A301C704DF
:101EF0000347540493871600A2978906A381E70439
:101F00009DBF85462286D2854E85829AE30E65FB6B
:101F1000050945B7797122D426D24AD04ECE06D6CD
:101F200052CC56CA5AC8B689942D93079006328966
:101F3000AA842E8413863504638DF60263E2D706E5
:101F4000930780056386F61863EDD700638E06203D
:101F500093073004638EF60A930A24042301D40401
:101F6000C9A0930730066385F60A93074006E395F8
:101F7000F6FE1C40084393F6070893054500C5C6C6
:101F80001C410CC363D807001307D002B307F0400D
:101F9000A301E4049706000093864639294765A803
:101FA000930700076382F61663E5D7029307E006FE
:101FB0006389F6189307F006E390F6FA0C401C4389
:101FC00013F80508138547006307080608C39C43F8
:101FD00085A893075007E383F6FE9307800763897C
:101FE000F61293073007E399F6F61C43D04181457A
:101FF0009386470014C383AA070056856D2A01C53E
:102000003305554148C05C401CC8A301040461A8C5
:102010001C43930A2404938647009C4314C3230162
:10202000F4048547D5B793F607041C410CC3B9DA0D
:10203000C207C18781BF93F5050408C3C9D99E2390
:102040001307F0066387E60E970600009386062EB8
:102050002947A30104044C400CC463C50500084093
:102060006D9908C099E3B28A89CDB28AB3F5E702C7
:10207000FD1AB6958C212380BA00B3D5E70263F030
:10208000E70CA147631EF7001C40858B91CB58409D
:102090001C4863C7E70093070003A38FFAFEFD1AED
:1020A0003306564110C84E87CA867000A285268521
:1020B000EFF09FD57D5A631D450B7D55B2502254DC
:1020C00092540259F249624AD24A424B4561828097
:1020D000A382D50497060000938646250C4008434A
:1020E00013F805081C411105630D080208C313F716
:1020F000150001C793E505020CC04147B9FB0C4030
:1021000093F5F5FD0CC0B1B79C4193E707029CC164
:1021100093078007A302F4049706000093864622E3
:1021200075BF13F8050408C3E30308FCC207C183A5
:102130007DBF970600009386661F214719BFAE87B3
:1021400035B794411C43CC4913F806081385470062
:102150006306080008C39C438CC339A008C393F6E8
:1021600006049C43F5DA8EA323280400B28A25BF17
:1021700014485686CA8526858299E30045F51C4099
:10218000898B8DE7B2474844E35AF5F23E853DB767
:1021900085465686CA8526858299E30065F3050A39
:1021A0005C443247998FE345FAFEE9BF014A930A3E
:1021B00094017D5BF5B793F5F50F2A966314C5007E
:1021C000014582801C21E38EB7FE0505C5BF63F182
:1021D000A504B386C500637DD5029345F6FF81470C
:1021E000FD176393F50082803387F60003480700EC
:1021F0003387C7002A9723000701DDB73387F5002F
:1022000014233307F500850714A3E319F6FE828033
:102210008147E5BF81E5B2856FF0AFF4011122CCB3
:1022200006CE26CA4AC84EC6328401EEEFF02FE928
:102230000149F24062444A85D2444249B2490561AB
:102240008280AE84AA891D202689E37485FEA2853A
:102250004E85EFF00FF12A8969DDA6852286EFF021
:10226000EFDAA6854E85EFF08FE5E1B783A7C5FFCE
:102270001385C7FF63D50700AA959C413E958280D0
:10228000736561726368696E672025580D0A0000E6
:102290006865616425580D0A0000000064657625B4
:1022A000580D0A00636D6425580D0A006C656E2593
:1022B000580D0A005B5761726E696E675DC4DAB4CF
:1022C000E6B7D6C5E4CAA7B0DCA3A10D0A0000009A
:1022D000666F6F74657225580D0A0000696E0D0AED
:1022E0000000000070726F63657373696E6721256B
:1022F000780D0A0053797374656D436C6B3A2564ED
:102300000D0A00004368697049443A253038780D59
:102310000A000000232D302B20000000686C4C00C8
:10232000656667454647000030313233343536370D
:1023300038394142434445460000000030313233D1
:1023400034353637383961626364656600000000F1
:102350000000000000380140000000000000000004
:10236000000000000000000000000000000000006D
:10237000000000000000000000000000000000005D
:10238000000000000000000000000000000000004D
:10239000000000000000000000000000000000003D
:1023A000000000000000000000000000000000002D
:1023B000000000000000000000000000000000001D
:1023C000000000000000000000000000000000000D
:1023D00000000000000000000000000000000000FD
:1023E00000000000000000000000000000000000ED
:1023F00000000000000000000000000000000000DD
:1024000000000000000000000000000000000000CC
:1024100000000000000000000000000000000000BC
:1024200000000000000000000000000000000000AC
:10243000000000000000000000000000000000009C
:10244000000000000000000000000000000000008C
:10245000000000000000000000000000000000007C
:10246000000000000000000000000000000000006C
:102470000000000001020304060708090000000034
:102480000102030401020304060708090100020017
:1024900003000400050006000700080009000A0008
:1024A0000B000C000D000E000F00100000000000DB
:1024B000000000000000000000000000000000001C
:1024C000000000000000000000000000000000000C
:1024D00000000000000000000000000000000000FC
:1024E00000000000000000000000000000000000EC
:1024F00000000000000000000000000000000000DC
:1025000000000000000000000000000000000000CB
:1025100014140000010000000000000000D8B805FD
:102520000204060801420000300200205C01002085
:00000001FF
